:020000000C945E
:1000020086000C9400000C9400000C9400000C94E8
:1000120000000C9400000C9400000C9400000C945E
:1000220000000C9400000C9400000C9400000C944E
:1000320000000C9400000C9400000C9400000C943E
:10004200B6000C9400000C941C020C9400000C945A
:1000520000000C9400000C9400000C9400000C941E
:1000620000000C9400000C9400000C9400000C940E
:1000720000000C9400000C9400000C9400000C94FE
:1000820000000C9400000C94000053797374656DA9
:100092002053746172740D0A0053797374656D2074
:1000A20052656164790025642C25630048523A2028
:1000B20025642042504D2020202000537461747525
:1000C200733A204E6F726D616C202000537461741C
:1000D20075733A205741524E494E472100256C64B0
:1000E2000D0A000001002D4E414E00494E4600000F
:1000F2000D0000059B0011000D05BD0011001E053D
:10010200CE0001004605E6000000F894EE27ECBBA5
:10011200F1E0F5BFE5BFE0936C008DE0A2E0BB2704
:10012200ED938A95E9F780E090E1A0E0B1E0ED93EC
:100132000197E9F7E2EFF0E085919591009761F080
:10014200A591B59105901590BF01F00105900D9212
:100152000197E1F7FB01F0CF8BBFEFEFEDBFE0E1DD
:10016200EEBFC0E0D5E00C944B02AA93EA93EFB73E
:10017200EA93E0914505EF5FE0934505A0914505BF
:10018200AC3318F0E0E0E0934505E991EFBFE99167
:10019200A9911895E0E0E0937100E8E4E093700023
:1001A200E4E0E093740008951A930A9300E010E0EB
:1001B200E0917400E07849F40F5F1F4F0133E5E7E7
:1001C2001E0710F0E0E098C0F3CFE1E095C0E4EA4A
:1001D200E0937400E9DF0895E4E9E0937400E1D567
:1001E20008951A931A2F10937300E0D557C01A93EB
:1001F2000A938D01E4ECE0937400D6DFE03011F451
:10020200E0E07AC0D7D578C01A930A938D01CED593
:10021200E03011F4E0E070C0CDD56EC01A931A2F11
:10022200D6DFE030D9F1AEE4DCDFE030B9F1A12F66
:10023200D8DFD2DF33C0C4D5EB81E07FAA81EA2BBD
:10024200E8601E2FE460AE2FE9DF8BE08A95F1F7BC
:10025200E12FEB7FAE2FE2DF88EC90E00197F1F720
:1002620059C0AA9337D63D81ED81E07F1E2FED81E3
:10027200E295E07F0E2F1A93AD81DDDF0A93AD8107
:10028200DADF2FD6269608951A931A2F1A93A0E032
:1002920004C01A931A2F1A93A1E0E3DF199108956B
:1002A200A2E393D5A5E091D580E293E00197F1F71F
:1002B200E0E3EA93A0E0BFDF74D5E0E2EA93A0E0D6
:1002C200BADFA2E0B0E072D6A8E2DEDFACE0DCDFAB
:1002D200A6E0DADFA1E0D8DFA2E0B0E067D60895B9
:1002E2001A930A938D01D801EC91E03029F00F5F47
:1002F2001F4FAC91CEDFF7CF09911991089560D5C8
:10030200AA81A03011F4E0E801C0E0EC1E2F100F2A
:10031200A12FBADF19810881249608951A930A93AE
:100322001A2F0A8154DFE03069F0AEEA5ADFE0307A
:1003320049F0A02F56DFE03029F0A12F52DFE03044
:1003420009F04ADF1981088123960895C3D58D01EA
:100352003C813DDFE03019F4E0E00C946103AEEA49
:1003620040DFE03019F4E0E00C946103A32F39DFA1
:10037200E03019F4E0E00C94610329DFE03019F475
:10038200E0E00C946103AFEA2CDFE03019F4E0E026
:100392000C946103D80138DFE03019F4E0E00C94EA
:1003A20061031ADFE1E00C946103E9E0EA93A0E45F
:1003B200B5DFA4E6B0E0FAD5E8E0EA93A0E5AEDF67
:1003C200E9E0EA93A3E0AADFEAE0EA93A7E2A6DF84
:1003D200ECE0EA93A4E2A2DFEDE0EA93A4E29EDF7E
:1003E200E4E0EA93A0E09ADFE5E0EA93A0E096DF9A
:1003F200E6E0EA93A0E092DF0895E0E0EFBDEEBD13
:10040200BD98C5980895EEB5E03049F4BD9AE0E490
:10041200EFBDEAE0EEBDE3EFF1E0FBBDEABD08951A
:10042200E8E9EAB9E6E0E0939500E0E0E0939000C5
:10043200E8E0E9B90895AA93EA93FA93EFB7EA9349
:100442001A931CB11C3321F4E0E0E09343051BC076
:100452001E3359F4E0914305F0E0E15DFA4FA0E06C
:10046200A083E1E0E09344050EC0A0914305A331CF
:1004720050F4E0914305EF5FE0934305E150F0E073
:10048200E15DFA4F10831991E991EFBFF991E9917A
:10049200A99118956C97E0E0E88BE98B2EE4C0DF18
:1004A20079DE83DFFDDEE7E0E3BFE7B7E160E7BFC8
:1004B200ECE8F0E0FA93EA9380E0AAD222968BD499
:1004C200A0E0B5E00DDFA8EEB3E070D5A1E0DCDE80
:1004D2007894E0914405E030D9F1EFE2F5E0FA9347
:1004E200EA93E8EAF0E0FA93EA93FE01749666274B
:1004F200772757D5EDB7FEB752D52F9388E0F5D3BE
:100502002C962F91E230A0E0FA07F9F4FE01FA935B
:10051200EA93EEEAF0E0FA93EA93EC89FD895FD47C
:1005220040D584E04CD2289656D4DE01D9DEE0E0F4
:10053200EA93A1E0E4DE2E3419F4ADE0B5E004C0A4
:10054200273519F4AEE1B5E0CBDEE0E0E0934405F7
:10055200273541F4A0914505AE3110F454DF01C0B6
:100562004CDF01C04ADF31E0E4E0EA93ADB7BEB749
:100572001F93ECDE1F91E03009F430E0303049F097
:10058200E6E0EA93ADB7BEB70F93E0DE0F91E0303D
:1005920009F001C030E0303011F0011709F477C0E2
:1005A20016DEE03009F430E0303021F0AEEA19DE38
:1005B200E03009F001C030E0303021F0A7E011DE78
:1005C200E03009F001C030E0303019F000DEE030F8
:1005D20009F001C030E0303021F0AFEA02DEE03055
:1005E20009F001C030E03030D9F040E050E0453051
:1005F200E0E05E0764F4DE015296A40FB51FF7DD5A
:10060200E03011F430E003C04F5F5F4FF0CF303085
:1006120029F0DE015796F8DDE03009F001C030E044
:10062200303009F0D9DD303091F1EA89F0E0D7D3EA
:100632006E2F7F2FE0E0F0E07F936F93FF93EF93B5
:10064200EB89F0E0CCD3DF01CB01E8E05BD4AF91E2
:10065200BF918F919F91C8D3DF01CB01EC89FF2716
:1006620066277727C1D3EF7FFF7F63707070E88FB3
:10067200F98F6A8F7B8FEFEDF0E0FA93EA93EA8DC0
:10068200FB8D6C8D7D8D8DD484E0C2D12696303069
:1006920039F4E0E0E0937400AAE0B0E087D47ADDB8
:1006A20018CFFFCFAA935D9BFECFE881ECB92196CC
:1006B200089510D48D013C81A32FF4DFD80199D382
:1006C20010D42596089504D49D015E81129697D385
:1006D200E9F0D90199D38F01309759F00230E0E067
:1006E2001E0760F0F80131978F01D9011496ED933E
:1006F200FC93D90112967DD331975083D901ED91A4
:10070200FC911197FF230AF074D305C0D901EFEFD2
:10071200FFEFED93FC93E3D327960895BA93AA9340
:100722002B97D6D310E0A989BA89E0E0F0E0ED93E7
:10073200FC93EF89F88D3196EF8BF88F3197E49126
:100742002E2FE03009F434C1E12FE03031F42532AC
:1007520011F411E001C05DD32AC1E130A1F42532C8
:1007620011F457D323C112E040E000E02D3211F41E
:1007720001E01DC12B3211F44BE219C1203211F4F8
:1007820040E215C102C0E23039F450E013E02033F8
:1007920011F400680CC102C0E33091F4203310F070
:1007A2002A3308F007C0AAE05A9F502DE22FE053E7
:1007B2005E0FFDC02C3619F4026015E0F8C003C0CC
:1007C200E53009F0F4C0E22FE33639F429D3ED899C
:1007D200FE89A481AA932AD3E9C0E33729F420D35E
:1007E2002BD3A3D21E2F07C0E03751F419D324D341
:1007F200A8D21E2F08600F77E0E0E88B30E05DC0E2
:10080200E43611F0E93611F4046002C0E53791F4E0
:10081200EAE0E88B01FF07C0E0E0FAEC6AE97BE37B
:1008220015D31AE01FC0E0E1F7E260E070E00ED3FA
:1008320015E018C0E83511F4086003C0E83709F084
:10084200B5C0E0E1E88B01FF07C0E0E0F0E060E066
:1008520070E1FCD218E006C0E0E0F0E160E070E098
:10086200F5D214E001FF06C0DBD2AD89BE89149631
:1008720090D30EC002FF06C0D3D2AD89BE89C4D2C6
:10088200AED206C0CDD2AD89BE89BED26627772749
:10089200EC87FD876E877F8702FF0FC0AF85AA2393
:1008A2003AF4EC85FD856E857F8524D3D4D24DE262
:1008B200403011F01F5F01C00B7F00FD10C0151703
:1008C20070F407FF08C002FF04C00B7F242F1150F1
:1008D20001C020E301C020E29CD25150F0CF312F61
:1008E200E889E030B1F4303099F003FF06C0EE81C0
:1008F200FF812591EE83FF8305C0AE81BF812D91DB
:10090200AE83BF8386D2503009F051503150EBCFC5
:1009120044C0A6D216D32E2F2A3030F003FF02C0D5
:10092200295C01C0295A01C0205D04FD1EC021338B
:1009320048F49FD2A130E0E0BE07E0E08E07E0E09D
:100942009E0709F409C0531710F000FF01C011C03F
:1009520020E207FF0AC020E3006102FF06C00B7F0E
:100962004A9364D2503009F0515053D2503009F0BA
:100972005150315075D209D36ED2E8897AD2FF270D
:1009820066277727DED262D2E885F9856A857B857C
:1009920030976040704009F0BCCF00FF07C0503074
:1009A20029F05150E0E2EA9341D2F9CF10E0C1CEF2
:1009B200A989BA89ED91FD9192D269960895FF9223
:1009C200F82E269785D25AD246855785042E052AB7
:1009D20019F4EFEFFFEF18C0DE01189654D24887E2
:1009E2005987E0E0EA87EB87DE011C9651D2E4E604
:1009F200F3E0FA93EA93DE011C9690DE9F01A8854C
:100A0200B985E0E0EC93F9016AD22C96FF90089543
:100A1200FF92F82E26971A930A93DE01149633D288
:100A2200E0E0EC83ED83EE83EF83DE01189630D2B3
:100A3200EAE5F3E0FA93EA93DE0118966FDE198194
:100A420008812896FF90089543D29D014E815F81CF
:100A5200E0E0EC93DA01EC911E2FE03019F0E0E0D7
:100A6200EC9310C0D9011196CAD159F0F901A181B4
:100A7200B281EC911E2FE03019F0D9011196B9D153
:100A820001C010E0E12F2BD228960895FF92BA936D
:100A9200AA9324971DD2E0E0F0E0E887F9874E2F71
:100AA200E889F9893196E88BF98B3197E4913E2FE9
:100AB200E03009F414C1A32F5AD1E030B9F0EDB7F8
:100AC200FEB7FA93EA934F93EDD14F913E2FE03068
:100AD20021F0A32F4CD1E03009F406C0E9D11CF477
:100AE200EFEFFFEFFEC0EBCF432FF8C0353209F036
:100AF200DFC050E0E889F9893591E88BF98B303312
:100B020010F03A3308F007C0AAE05A9F502DE32FA5
:100B1200E0535E0FEFCF303009F4E1C0EDB7FEB71E
:100B2200FA93EA934F93BED14F912E2FAE2F1FD13E
:100B3200E03031F0BDD11CF4EFEFFFEFD2C0EECFC9
:100B4200203009F4C3C0422F503009F45FEFE32F85
:100B5200E33681F4B2D1EDB7FEB7FA93EA934F933D
:100B6200A1D14F91D801EC93A3D11CF4EFEFFFEF89
:100B7200B8C098C0E33731F5A0D1E52F5150E0302D
:100B8200E9F0EDB7FEB7FA93EA934F938BD14F9109
:100B92003E2FE03021F0A32FEAD0E03031F088D1AF
:100BA2001CF4EFEFFFEF9DC009C01F930F930F5F7F
:100BB2001F4FE32FAF91BF91EC93DFCFD801E0E05D
:100BC200EC9370C06894F1F8E894F2F8E32FE436FD
:100BD20011F0E93619F4E894F1F802C0E53711F49E
:100BE2002AE008C0E83711F420E104C0E53209F434
:100BF2005FC075C0E0E0EE83EF836894F0F8E52F04
:100C02005150E03009F441C0EDB7FEB7FA93EA93D0
:100C12004F9348D14F913E2FE13230F449D11CF429
:100C2200EFEFFFEF5EC015C0F1FC08C06894F1F869
:100C32003D3211F4F2F8E3CF3B3209F3203129F4CB
:100C4200A32FA0D0E03029F008C0A32F87D0E03036
:100C520021F4F0FC44C0432F18C0313610F0375550
:100C620005C0313410F0375301C03053E22FAE814A
:100C7200BF81F0E05ED1DF01E32FF0E0EA0FFB1F5E
:100C8200EE83FF83E894F0F8BACF17D1F2FE05C0E5
:100C9200EE81FF812BD1EE83FF83EE81FF81D801AC
:100CA200ED93FC93E885F9853196E887F98716C0BC
:100CB200EDB7FEB7FA93EA934F93F4D04F91E3174F
:100CC20069F0F6D01CF4EFEFFFEF0BC0E885F98571
:100CD200309719F4EFEFFFEF04C001C0E1CEE885D1
:100CE200F985FDD06296FF900895FF92F82E239722
:100CF200F1D0C4D021853285022E032A19F4EFEFF8
:100D0200FFEF0FC0DE011396BED02D833E83DE01BE
:100D12001796BED0E5E2F5E0FA93EA93DE011A9661
:100D2200B5DEDFD02796FF900895BA93AA93A991D2
:100D3200B991EE27FF276D91662311F03196FBCF13
:100D42000895BA93AA93AA27BB27E991F99105902E
:100D5200002011F01196FBCFFD010895AA93E1E066
:100D6200F991F03310F0FA3308F0EE270895AA93C0
:100D7200E1E0F991F03229F0F93010F0FE3008F09C
:100D8200EE270895AA93E1E0F991F05340F0FA308A
:100D920038F0FF75F750FA3010F0F03108F0EE2716
:100DA200089580E991E00197F1F70895E4E8E0936E
:100DB2007400FAC9E0917300D801EC93E1E0089560
:100DC200AA931A930A930B810895B0E0EFD0E0E35F
:100DD200EA93A0E030CAE0E0EA93A0E090CA6F2F65
:100DE200660F660B762F0895EA2BFB2B682B792B67
:100DF2000895ED91FD913196FE93EE930895ED9154
:100E0200FC911197309708951496ED91FC911197EA
:100E120008952A93AA89BB89EC89FD8909950895C9
:100E2200ED89FE893497ED8BFE8B0895AA89BB89E3
:100E3200EC89FD8909950895AD89BE891496ED91D5
:100E4200FD91EE83FF83AE81BF810895E887F98724
:100E52006A877B870895EC87FD876E877F87089571
:100E6200E885F9856A857B85AC85BD858E859F85FC
:100E72000895A885B9858A859B850895FE01002479
:100E8200EF0DF01D08950024AF0DB01D8D010895E2
:100E92000024AF0DB01DED91FD91FA93EA931A93E0
:100EA2000A930895AC85BD85EE85FF850995089561
:100EB200AA85BB85AC91A0300895EE85FF85349755
:100EC200EE87FF87AE85BF8514960D911C9108951C
:100ED2005A934A933A932A931A930A9308955D81F7
:100EE2004C813B812A81198108810895F195E19510
:100EF200F0400895F09560957095E195FF4F6F4F22
:100F02007F4F0895EE230E2EE8E01E2EFD01BC0158
:100F120079F0011438F0762F6F2FFE2FE0E00118E0
:100F2200C1F70895EE0FFF1F661F771F0A94D1F7CE
:100F32000895FA9FF02DEB9FF00DEA9FE02DF10D41
:100F420008953F934F935F9300241124A00130E250
:100F5200AA0FBB1F881F991F001C111C441F551F7D
:100F62000E1A1F0A460B570B28F40E0E1F1E461FA1
:100F7200571F01C0A1603A9559F7FD01BC01D0018C
:100F8200CA015F914F913F910895DBDFFD01BC01E2
:100F92000895ED91FD916D917C911397089560E014
:100FA20070E07A936A93FA93EA930895109639F06F
:100FB200A89580EA9FE00197F1F71197C9F7089584
:00000001FF
