:100000000C9456000C9400000C9400000C9400001A
:100010000C9400000C9400000C9400000C94000060
:100020000C9400000C9400000C9400000C94000050
:100030000C9400000C9400000C9400000C94000040
:100040000C9400000C9400000C945D010C940000D2
:100050000C9400000C9400000C9400000C94000020
:100060000C9400000C9400000C9400000C94000010
:100070000C9400000C9400000C9400000C94000000
:100080000C9400000C9400000C940000FF005379C5
:100090007374656D2053746172740D0A00256C646D
:1000A0000D0A0000010000058C000000F894EE2706
:1000B000ECBBF1E0F5BFE5BFE0936C008DE0A2E0A2
:1000C000BB27ED938A95E9F780E090E1A0E0B1E0ED
:1000D000ED930197E9F7E4EAF0E0859195910097B7
:1000E00061F0A591B59105901590BF01F0010590C3
:1000F0000D920197E1F7FB01F0CF8BBFEFEFEDBF62
:10010000E0E1EEBFC0E0D5E00C9470011A930A93D1
:1001100000E010E0E0917400E07849F40F5F1F4FB9
:100120000133E5E71E0710F0E0E039C0F3CF36C039
:10013000E0E0E0937100E8E4E0937000E4E0E09335
:1001400074000895E4EAE0937400E0DF0895E4E9C0
:10015000E093740080E991E00197F1F708951A9314
:100160001A2F1093730015D3199108951A930A93B7
:100170008D01E4ECE0937400C9DFE03011F4E0E0BD
:100180000EC008C01A930A938D0103D3E03011F416
:10019000E0E005C0E0917300D801EC93E1E0099143
:1001A000199108951A930A931A2F0A81CBDFE03030
:1001B00069F0AEEAD4DFE03049F0A02FD0DFE030C4
:1001C00029F0A12FCCDFE03009F0C1DF19810881CF
:1001D000239608952DD38D013C81B4DFE03019F4CE
:1001E000E0E00C943902AEEABADFE03019F4E0E066
:1001F0000C943902A32FB3DFE03019F4E0E00C9443
:100200003902A0DFE03019F4E0E00C943902AFEAE3
:10021000A6DFE03019F4E0E00C943902D801B2DF37
:10022000E03019F4E0E00C94390291DFE1E00C9445
:1002300039027EDFE9E0EA93A0E4B4DFA4E6B0E0AF
:1002400055D3E8E0EA93A0E5ADDFE9E0EA93A3E067
:10025000A9DFEAE0EA93A7E2A5DFECE0EA93A4E2F3
:10026000A1DFEDE0EA93A4E29DDFE4E0EA93A0E001
:1002700099DFE5E0EA93A0E095DFE6E0EA93A0E00D
:1002800091DF0895E0E0EFBDEEBDBD98C5980895FB
:10029000BD9AE0E4EFBDEAE0EEBDE3EFF1E0FBBDC7
:1002A000EABD0895E8E9EAB9E6E0E0939500E0E008
:1002B000E0939000E8E0E9B90895EA93EFB7EA9394
:1002C0001A931CB1113311F4E1E003C0103319F497
:1002D000E0E0E09300051991E991EFBFE9911895ED
:1002E0002A97E0DF25DFEEE8F0E0FA93EA9380E07A
:1002F00010D222969EDF7894A0910005EFEFB0E037
:10030000FFEFEA17FB0751F0A0910005A13011F4AF
:10031000BFDF01C0B7DFEFEFE093000531E0E4E0BD
:10032000EA93ADB7BEB71F9355DF1F91E03009F4D4
:1003300030E0303049F0E6E0EA93ADB7BEB70F9356
:1003400049DF0F91E03009F001C030E0303011F0AA
:10035000011709F471C0F6DEE03009F430E0303006
:1003600021F0AEEAFCDEE03009F001C030E03030D0
:1003700021F0A7E0F4DEE03009F001C030E03030D9
:1003800019F0E0DEE03009F001C030E0303021F05B
:10039000AFEAE5DEE03009F001C030E03030D1F006
:1003A00040E050E04530E0E05E075CF4DE01A40F81
:1003B000B51FDCDEE03011F430E003C04F5F5F4F6B
:1003C000F1CF303029F0DE011596DCDEE03009F0A7
:1003D00001C030E0303009F0BADE303069F1E88138
:1003E000DCD16E2F7F2FE0E0F0E07F936F93FF93DF
:1003F000EF93E981D2D1DF01CB01E8E02DD2AF91BB
:10040000BF918F919F91CFD1DF01CB01EA81FF276F
:1004100066277727C8D1EF7FFF7F63707070EE8308
:10042000FF8368877987EDE9F0E0FA93EA93C0D11A
:1004300058D284E06ED12696303039F4E0E0E09373
:100440007400AAE0B0E052D273DE56CFFFCFAA9379
:100450005D9BFECFE881ECB921960895E9D18D012D
:100460003C81A32FF4DFD801ED91FD913196FE93ED
:10047000EE93E5D125960895BA93AA932B97D6D1FA
:1004800010E0A989BA89E0E0F0E0ED93FC93EF89F0
:10049000F88D3196EF8BF88F3197E4912E2FE03065
:1004A00009F430C1E12FE03031F4253211F411E0CC
:1004B00001C083D126C1E130A1F4253211F47DD1F0
:1004C0001FC112E040E000E02D3211F401E019C13B
:1004D0002B3211F44BE215C1203211F440E211C16C
:1004E00002C0E23039F450E013E0203311F4006828
:1004F00008C102C0E33091F4203310F02A3308F031
:1005000007C0AAE05A9F502DE22FE0535E0FF9C0BA
:100510002C3619F4026015E0F4C003C0E53009F090
:10052000F0C0E22FE33639F44FD1ED89FE89A48182
:10053000AA9350D1E5C0E33729F446D151D110D167
:100540001E2F07C0E03751F43FD14AD115D11E2FDD
:1005500008600F77E0E0E88B30E05CC0E43611F033
:10056000E93611F4046002C0E53791F4EAE0E88B63
:1005700001FF07C0E0E0FAEC6AE97BE33BD11AE057
:100580001FC0E0E1F7E260E070E034D115E018C090
:10059000E83511F4086003C0E83709F0B1C0E0E1C4
:1005A000E88B01FF07C0E0E0F0E060E070E122D1FD
:1005B00018E006C0E0E0F0E160E070E01BD114E07C
:1005C00001FF06C001D1AD89BE89149684D10DC04A
:1005D00002FF07C0F9D013D16F2F660F660B762F7D
:1005E00004C0F2D00CD166277727EC87FD876E8791
:1005F0007F8702FF0FC0AF85AA233AF4EC85FD8503
:100600006E857F8521D102D14DE2403011F01F5F10
:1006100001C00B7F00FD10C0151770F407FF08C064
:1006200002FF04C00B7F242F115001C020E301C042
:1006300020E2C3D05150F0CF312FE889E030B1F43F
:10064000303099F003FF06C0EE81FF812591EE83E3
:10065000FF8305C0AE81BF812D91AE83BF83ADD036
:10066000503009F051503150EBCF41C0D4D00BD1B4
:100670002E2F2A3030F003FF02C0295C01C0295A16
:1006800001C0205D04FD1EC0213348F4CAD0A13052
:10069000E0E0BE07E0E08E07E0E09E0709F409C055
:1006A000531710F000FF01C011C020E207FF0AC07D
:1006B00020E3006102FF06C00B7F4A938BD05030CD
:1006C00009F051507AD0503009F051503150A3D038
:1006D000FED09CD0E889A5D0FF2766277727D3D006
:1006E00089D066D030976040704009F0BFCF00FFDE
:1006F00007C0503029F05150E0E2EA936BD0F9CFB7
:1007000010E0C5CEA989BA89ED91FD9196D0699680
:100710000895FF92F82E26971A930A93DE011496F5
:100720000024AF0DB01D8D01E0E0EC83ED83EE837E
:10073000EF83DE0118960024AF0DB01DED91FD9101
:10074000FA93EA931A930A93EEE2F2E0FA93EA93A9
:10075000DE01189691DE198108812896FF90089590
:10076000BA93AA93A991B991EE27FF276D916623B9
:1007700011F03196FBCF0895BA93AA93AA27BB270D
:10078000E991F9910590002011F01196FBCFFD0140
:100790000895E4E8E0937400B9CCF0E06F2F660FA1
:1007A000660B762F0895EA2BFB2B682B792B089587
:1007B000E885F9856A857B8508952A93AA89BB898E
:1007C000EC89FD8909950895ED89FE893497ED8BB3
:1007D000FE8B0895AA89BB89EC89FD890995089546
:1007E000AD89BE891496ED91FD91EE83FF83AE81B4
:1007F000BF810895E887F9876A877B870895AD8967
:10080000BE891496ED91FC9111970895EC87FD87B0
:100810006E877F870895CCDFAC85BD858E859F85EB
:100820000895A885B9858A859B8508955A934A932A
:100830003A932A931A930A9308955D814C813B81E0
:100840002A81198108810895F09560957095E19548
:10085000FF4F6F4F7F4F0895EE230E2EE8E01E2EC0
:10086000FD01BC0179F0011438F0762F6F2FFE2FB7
:10087000E0E00118C1F70895EE0FFF1F661F771F14
:100880000A94D1F708953F934F935F930024112466
:10089000A00130E2AA0FBB1F881F991F001C111C6A
:1008A000441F551F0E1A1F0A460B570B28F40E0E35
:1008B0001F1E461F571F01C0A1603A9559F7FD0141
:1008C000BC01D001CA015F914F913F910895DBDFD8
:1008D000FD01BC010895ED91FD916D917C911397FF
:1008E00008957A936A93FA93EA930895109639F0EB
:1008F000A89580EA9FE00197F1F71197C9F708954D
:00000001FF
