:100000000C945A000C9479000C9479000C947900AB
:100010000C9479000C9479000C9479000C9479007C
:100020000C9479000C9479000C9479000C9479006C
:100030000C9479000C9479000C9479000C947B005A
:100040000C9479000C9479000C9479000C9479004C
:100050000C9479000C9479000C9479000C9479003C
:100060000C9479000C9479000C9479000C9479002C
:100070000C9479000C9479000C9479000C9479001C
:100080000C9479000C9479000C9479000763423643
:10009000B79BD8A71A39685618AEBAAB558C1D3C19
:1000A000B7CC5763BD6DEDFD753EF6177231BF00DD
:1000B0000000803F11241FBECFEFD0E1DEBFCDBFD7
:1000C00012E0A0E0B1E0E4E2F7E200E00BBF02C022
:1000D00007900D92AE38B107D9F713E0AEE8B2E061
:1000E00001C01D92A230B107E1F70E946D040C948B
:1000F00090130C9400001F920F920FB60F921124D0
:100100008F939F93AF93BF9380918E0290918F02B4
:10011000A0919002B09191020196A11DB11D809312
:100120008E0290938F02A0939002B0939102BF91A0
:10013000AF919F918F910F900FBE0F901F901895C8
:100140008FB7F89420918E0230918F0240919002E7
:10015000509191028FBFB901CA0108958BE083BF0E
:1001600012BE89EF81BF87B7826087BF08951F9352
:10017000182F8A3019F48DE00E94B7005D9BFECFE6
:100180001CB980E090E01F9108951092900087E6DE
:1001900089B988E18AB986E0809395000895109224
:1001A00071008CE080937000089584EA809374005D
:1001B0008091740087FFFCCF089584E980937400D8
:1001C00008958093730084E8809374008091740094
:1001D00087FFFCCF089584EC8093740080917400B5
:1001E00087FFFCCF80917300089584E880937400AA
:1001F0008091740087FFFCCF809173000895FC010B
:1002000080E094E2A4E7B9E480839183A283B3837E
:1002100080E094E2A4E7B9EC84839583A683B78356
:1002200080E090E0A0E0B0E080879187A287B3876C
:10023000158614860895EF92FF920F931F93CF9324
:10024000DF93EC017A018B01CB01BA01288139815E
:100250004A815B810E940A0B882324F4E882F98298
:100260000A831B83C801B7012C813D814E815F81C8
:100270000E94DA0A181624F4EC82FD820E831F8392
:10028000688579858A859B85A80197010E94D70892
:10029000688779878A879B878C859D8501969D874E
:1002A0008C87DF91CF911F910F91FF90EF90089570
:1002B000CF93DF93EC012C853D852115310529F481
:1002C000E0E070E080E060E011C0B901882777FDD0
:1002D0008095982F0E943A0B9B01AC016885798527
:1002E0008A859B850E94FE09E62F692F2E2F372FC6
:1002F000482F562FB901CA01DF91CF910895FC0113
:10030000108E0895AF92BF92CF92DF92EF92FF923C
:100310000F931F93CF93DF93EC015A016B01888DEC
:10032000882359F480E090E0A0E0B0E0888B998BBE
:10033000AA8BBB8B81E0888F30C0CB01BA012C81A6
:100340003D814E815F810E9404097B018C0168859B
:1003500079858A859B852C893D894E895F890E9494
:1003600004099B01AC01C801B7010E94D7087B01B9
:100370008C016C857D858E859F85288939894A8980
:100380005B890E9404099B01AC01C801B7010E946E
:10039000D708688B798B8A8B9B8BAC8ABD8ACE8A77
:1003A000DF8A288939894A895B89B901CA01DF91C5
:1003B000CF911F910F91FF90EF90DF90CF90BF9062
:1003C000AF900895FC0114860895EF92FF920F9369
:1003D0001F93CF93DF93EC018C85882339F44887F2
:1003E00059876A877B8781E08C871EC0CB01BA0161
:1003F000288139814A815B810E9404097B018C013B
:100400006C817D818E819F81288539854A855B85B8
:100410000E9404099B01AC01C801B7010E94D708E2
:10042000688779878A879B87288539854A855B8590
:10043000B901CA01DF91CF911F910F91FF90EF9009
:100440000895FC014083518362837383108608956D
:10045000FC0110860895EF92FF920F931F93CF93A4
:10046000DF93EC017A018B018885813089F4CB011F
:10047000BA012C813D814E815F810E94A6082881AE
:1004800039814A815B810E940409E62F692F06C0E9
:1004900081E08887E0E070E080E060E0EC82FD824F
:1004A0000E831F832E2F372F482F562FB901CA01D5
:1004B000DF91CF911F910F91FF90EF900895982FAA
:1004C00084EA809374008091740087FFFCCF8EEAE9
:1004D0008093730084E8809374008091740087FF98
:1004E000FCCF9093730084E8809374008091740033
:1004F00087FFFCCF6093730084E880937400809141
:10050000740087FFFCCF84E980937400089589E02C
:1005100060E40E945F0288EE93E020E931E0F90197
:100520003197F1F70197D9F782E060EC0E945F0202
:1005300088E060E50E945F028AE06FE20E945F024D
:100540008CE064E20E945F028DE064E20E945F0240
:1005500089E063E00E945F020895EF92FF920F939B
:100560001F93DF93CF9300D000D000D0CDB7DEB77C
:100570008C0184EA809374008091740087FFFCCF23
:100580008EEA8093730084E88093740080917400F5
:1005900087FFFCCF87E08093730084E8809374002A
:1005A0008091740087FFFCCF84EA8093740080916F
:1005B000740087FFFCCF8FEA8093730084E88093F8
:1005C00074008091740087FFFCCFFE01319694EC9B
:1005D0009E012A5F3F4F909374008091740087FFC3
:1005E000FCCF809173008193E217F307A1F784E8B1
:1005F000809374008091740087FFFCCFE0907300BB
:1006000084E980937400298130E040E050E0A90142
:10061000332722278A8190E0A0E0B0E0BA2FA92FEB
:10062000982F8827282B392B4A2B5B2B8B8190E026
:10063000A0E0B0E0282B392B4A2B5B2B4370507085
:10064000F80120833183428353832C8130E040E0E2
:1006500050E0A901332722278D8190E0A0E0B0E08F
:10066000BA2FA92F982F8827282B392B4A2B5B2BA1
:10067000FF2400E010E02E293F29402B512B43702E
:100680005070FB01208331834283538326960FB63B
:10069000F894DEBF0FBECDBFCF91DF911F910F91B8
:1006A000FF90EF900895EF92FF920F931F93109297
:1006B000B0021092BD021092DF021092C6020F2EFD
:1006C000F0E0EF2EF4E2FF2EF4E70F2FF9E41F2FF6
:1006D000F02DE092EE02F092EF020093F002109300
:1006E000F10220E034E244E759EC2093F202309327
:1006F000F3024093F4025093F50280E090E0A0E012
:10070000B0E08093F6029093F702A093F802B093C2
:10071000F9021092FB021092FA02E092E002F092CB
:10072000E1020093E2021093E3022093E40230938B
:10073000E5024093E6025093E7028093E80290932B
:10074000E902A093EA02B093EB021092ED0210923C
:10075000EC0210929A022FB7F89480918E02909139
:100760008F02A0919002B09191022FBF80939602C8
:1007700090939702A0939802B09399021F910F91C2
:10078000FF90EF9008956F927F928F929F92AF9219
:10079000BF92CF92DF92EF92FF920F931F933C0193
:1007A0006A017B0148015901CB01BA01A7019601F9
:1007B0000E94D7082BED3FE049E450E40E94040971
:1007C0009B01AC01C501B4010E94FE099B01AC0173
:1007D00060E070E080E89FEB0E94FE090E941A0F23
:1007E0007B018C0160E070E080E89FE3A801970145
:1007F0000E94A608F3016083718382839383E4825D
:10080000F5820683178314861F910F91FF90EF9056
:10081000DF90CF90BF90AF909F908F907F906F9020
:1008200008956F927F928F929F92AF92BF92CF92D4
:10083000DF92EF92FF920F931F933C016A017B01BD
:1008400048015901CB01BA01A70196010E94D708BE
:100850002BED3FE049E450E40E9404099B01AC0108
:10086000C501B4010E94FE099B01AC0160E070E08B
:1008700080E89FEB0E94FE090E941A0F7B018C0109
:10088000F301608371838283938320E030E040E84A
:100890005FE30E94D70820E030E040E05FE30E9481
:1008A0000409F30164837583868397839058608776
:1008B000718782879387E486F58606871787108E6F
:1008C0001F910F91FF90EF90DF90CF90BF90AF906E
:1008D0009F908F907F906F9008952F923F924F92AC
:1008E0005F926F927F928F929F92AF92BF92CF92C0
:1008F000DF92EF92FF920F931F93DF93CF93CDB7C9
:10090000DEB762970FB6F894DEBF0FBECDBF109270
:10091000900087E689B988E18AB986E080939500DE
:1009200086E591E09093FF028093FE0210927100A1
:100930008CE0809370008BE083BF12BE89EF81BF93
:1009400087B7826087BF789480E197E220E931E041
:10095000F9013197F1F70197D9F780E091E00E9412
:10096000E00E0E94870284EA92E040E050E060EAF4
:1009700070E400E010E028EC32E40E94C30381EB55
:1009800092E040E050E060EA70E400E010E028EC23
:1009900032E40E94C30387EC92E040E050E060E064
:1009A0007FE300E010E028EC32E40E94110480E0D4
:1009B00090E0A8ECB2E48093BE029093BF02A093B3
:1009C000C002B093C1021092C6020E945303CE012E
:1009D0000196BE016B5F7F4F0E94AD02E980FA80F5
:1009E0000B811C816D807E808F80988421E1E216CE
:1009F00027E2F20620E0020720E0120700F18FB79D
:100A0000F89420918E0230918F0240919002509183
:100A100091028FBF8091960290919702A0919802C7
:100A2000B0919902281B390B4A0B5B0B255F3140B3
:100A30004040504070F091E090939A020AC080913B
:100A40009A02882331F00E94530383E291E00E94CE
:100A5000E00E80919A02882309F427C2C801B701E9
:100A60000E94EC0B9B01AC0184EA92E0DA01A9013F
:100A7000BD010E94E5015B016C01C401B3010E944C
:100A8000EC0B9B01AC0181EB92E0DA01A901BD0105
:100A90000E94E5017B018C018EEE92E0B601A5017A
:100AA0000E941B0180EE92E0B801A7010E941B0189
:100AB00087EC92E0B601A5010E9482017B018C01C6
:100AC0008091C6028130D9F4C801B7012091C202D9
:100AD0003091C3024091C4025091C5020E94A60801
:100AE0002091BE023091BF024091C0025091C102DC
:100AF0000E9404096F87788B898B9A8B0BC0A1E0C9
:100B0000A093C60220E030E040E050E02F87388B11
:100B1000498B5A8BE092C202F092C3020093C40246
:100B20001093C50260919B0270919C0280919D027E
:100B300090919E0220E030E040E050E00E94DA0A0E
:100B4000181614F56F85788989899A8920E030E034
:100B500040E050E00E940A0B8823B4F431E0309367
:100B60009F022FB7F89480918E0290918F02A091EE
:100B70009002B09191022FBF8093A0029093A102A6
:100B8000A093A202B093A3026F85788989899A897C
:100B900020E030E040E050E00E94DA0A181614F439
:100BA00010929F0280919F02882309F472C16F8581
:100BB000788989899A8920E030E04AEF54EC0E94D4
:100BC0000A0B88230CF065C18091920290919302E8
:100BD000A0919402B09195020097A105B10509F486
:100BE00058C12091A0023091A1024091A2025091DF
:100BF000A302281B390B4A0B5B0B2D3281E038070F
:100C000080E0480780E058070CF443C160E67AEEC4
:100C100080E090E00E945A0E3E872D876090F2029D
:100C20007090F3028090F4029090F502A090EE0292
:100C3000B090EF02C090F002D090F1028EEE92E000
:100C40000E9458011B012C0180EE92E00E94580185
:100C50007B018C016091E4027091E5028091E602D3
:100C60009091E7022091E0023091E1024091E2028E
:100C70005091E3020E94A608A80197010E94FE0974
:100C80007B018C0120E030E040E050E00E94AA0AA5
:100C9000882349F420E030E040E050E029873A879B
:100CA0004B875C8712C0C401B301A60195010E9465
:100CB000A608A20191010E94FE09A80197010E94C5
:100CC000FE0969877A878B879C878D859E858997A2
:100CD000833B910508F07FC069857A858B859C856B
:100CE0000E94980B2B013C015B014DB75EB74A5047
:100CF00050400FB6F8945EBF0FBE4DBF8DB69EB686
:100D00000894811C911CE3E3F1E0ADB7BEB71296E5
:100D1000FC93EE931197ED85FE85D4011396FC9319
:100D2000EE93129769857A858B859C852FE834E44C
:100D30004CEC5FE30E94040929853A854B855C856C
:100D40000E9404097B018C0169857A858B859C85CD
:100D50002EE733EA4AE052EC0E9404099B01AC0101
:100D6000C801B7010E94D70827E331E641EE52E4FB
:100D70000E94D7080E94980BD40115967C936E931D
:100D8000149717965C924E921697CC24B7FCC09499
:100D9000DC2CC601B5010E943A0B9B01AC016985B0
:100DA0007A858B859C850E94A60820E030E048EC7F
:100DB00052E40E9404090E94980BF4017187608735
:100DC0000E94CE0E2DB73EB7265F3F4F0FB6F89468
:100DD0003EBF0FBE2DBF80E094E2A4E7B9E480934C
:100DE000EE029093EF02A093F002B093F10220E0A4
:100DF00034E244E759EC2093F2023093F30240933B
:100E0000F4025093F50280E090E0A0E0B0E080931F
:100E1000F6029093F702A093F802B093F9021092B1
:100E2000FB021092FA0220E034E244E759E42093F6
:100E3000E0023093E1024093E2025093E30220E0AB
:100E400034E244E759EC2093E4023093E502409306
:100E5000E6025093E7028093E8029093E902A093A0
:100E6000EA02B093EB021092ED021092EC02809134
:100E7000A0029091A102A091A202B091A30280933E
:100E8000920290939302A0939402B09395021092D1
:100E90009F028F859889A989BA8980939B02909334
:100EA0009C02A0939D02B0939E0280E49CE901976E
:100EB000F1F78DCDA0E0B0E0E0E6F7E00C94970EFE
:100EC000DC012B01FA019C91923008F439C1EB014D
:100ED0008881823008F433C1943069F4843009F099
:100EE0002FC111969C9111978981981709F428C1F7
:100EF000A6E8B1E025C1843009F421C18230A9F40B
:100F0000923009F01DC19A01AD0188E0EA01099013
:100F1000AE01E90109929E018150C1F7E201898188
:100F200011969C918923818308C1923009F407C1ED
:100F300012962D903C901397EB018A819B81149619
:100F4000AD90BD90CD90DC901797EC80FD800E8128
:100F50001F819101281B390BB90137FF04C0662797
:100F60007727621B730B603271050CF061C012169B
:100F700013066CF537014801062E04C09694879439
:100F8000779467940A94D2F721E030E040E050E093
:100F900004C0220F331F441F551F6A95D2F72150FA
:100FA0003040404050402E213F2140235123211505
:100FB00031054105510521F021E030E040E050E0ED
:100FC00079018A01E628F728082919293CC0232B32
:100FD000D1F1260E371E35014601062E04C0969427
:100FE0008794779467940A94D2F721E030E040E048
:100FF00050E004C0220F331F441F551F6A95D2F7DB
:1010000021503040404050402A213B214C215D215D
:10101000211531054105510521F021E030E040E086
:1010200050E059016A01A628B728C828D9280BC062
:10103000821593052CF01C01AA24BB24650103C072
:10104000EE24FF24870111969C91D20111968C9178
:10105000981709F445C0992339F0A80197012A1976
:101060003B094C095D0906C0A60195012E193F09EF
:10107000400B510B57FD08C011823382228224831A
:101080003583468357831DC081E08183338222826A
:1010900088279927DC01821B930BA40BB50B848353
:1010A0009583A683B7830DC0220F331F441F551F9E
:1010B0002483358346835783828193810197938369
:1010C00082832481358146815781DA01C9010197E4
:1010D000A109B1098F5F9F4FAF4FBF4328F30BC0EA
:1010E000918333822282EA0CFB1C0C1D1D1DE482BD
:1010F000F5820683178383E08083248135814681CE
:10110000578157FF1AC0C901AA2797FDA095BA2F8A
:1011100081709070A070B07056954795379527955F
:10112000822B932BA42BB52B84839583A683B78323
:1011300082819381019693838283DF0101C0D20172
:10114000CD01CDB7DEB7E2E10C94B30EA0E2B0E082
:10115000ECEAF8E00C94A30E69837A838B839C837A
:101160002D833E834F835887E9E0EE2EF12CEC0E61
:10117000FD1ECE010196B7010E94890D8E010F5E02
:101180001F4FCE010596B8010E94890D8A8991E012
:1011900089278A8BC701B801AE01475E5F4F0E9465
:1011A0005A070E94B40CA096E6E00C94BF0EA0E291
:1011B000B0E0EDEDF8E00C94A30E69837A838B83A5
:1011C0009C832D833E834F835887F9E0EF2EF12CCB
:1011D000EC0EFD1ECE010196B7010E94890D8E0115
:1011E0000F5E1F4FCE010596B8010E94890DC70101
:1011F000B801AE01475E5F4F0E945A070E94B40CCF
:10120000A096E6E00C94BF0EA0E2B0E0EAE0F9E0C0
:101210000C94970E69837A838B839C832D833E8302
:101220004F835887CE010196BE01675F7F4F0E94B2
:10123000890DCE010596BE016F5E7F4F0E94890D1C
:101240009985923088F089898230C8F0943019F4F9
:10125000823051F404C0843029F4923081F486E85D
:1012600091E0C6C0923049F420E09A858A899813AB
:1012700021E02A87CE010996BBC0823049F420E0E4
:101280009A858A89981321E02A8BCE014196B0C0B5
:101290002D843E844F8458886D887E888F88988CF2
:1012A000EE24FF248701AA24BB24650140E050E01E
:1012B00060E070E0E0E0F0E0C10181709070892BA7
:1012C000E9F0E60CF71C081D191D9A01AB012A0D67
:1012D0003B1D4C1D5D1D80E090E0A0E0B0E0E614F9
:1012E000F7040805190520F481E090E0A0E0B0E0E3
:1012F000BA01A901480F591F6A1F7B1FAA0CBB1C0A
:10130000CC1CDD1C97FE08C081E090E0A0E0B0E0BE
:10131000A82AB92ACA2ADB2A3196E032F10549F017
:10132000660C771C881C991C569447943794279414
:10133000C3CFFA85EA892B893C898B859C85280F48
:10134000391F2E5F3F4F17C0CA0181709070892BE3
:1013500061F016950795F794E79480E090E0A0E09F
:10136000B0E8E82AF92A0A2B1B2B76956795579542
:1013700047952F5F3F4F77FDE7CF0CC0440F551FB8
:10138000661F771F17FD4160EE0CFF1C001F111F29
:1013900021503040403090E0590790E0690790E4D8
:1013A000790760F32B8F3C8FDB01CA018F77907038
:1013B000A070B07080349105A105B10561F447FDBE
:1013C0000AC0E114F1040105110529F0405C5F4FEA
:1013D0006F4F7F4F40781A8EFE1711F081E08A8F91
:1013E0004D8F5E8F6F8F78A383E0898FCE014996F2
:1013F0000E94B40CA096E2E10C94B30EA8E1B0E018
:10140000E4E0FAE00C949F0E69837A838B839C83DB
:101410002D833E834F835887B9E0EB2EF12CEC0EE1
:10142000FD1ECE010196B7010E94890D8E010F5E4F
:101430001F4FCE010596B8010E94890D29852230E3
:1014400008F47EC03989323010F4B8017CC08A8536
:101450009A8989278A87243011F0223031F42317A2
:1014600009F06EC066E871E06EC0343039F41D8654
:101470001E861F86188A1C861B8604C0323021F403
:1014800084E08987B7015FC02B853C858B899C8967
:10149000281B390B3C872B87ED84FE840F85188928
:1014A000AD88BE88CF88D88CEA14FB040C051D05D6
:1014B00040F4EE0CFF1C001F111F215030403C87F0
:1014C0002B8720E030E040E050E080E090E0A0E0BA
:1014D000B0E460E070E0EA14FB040C051D0540F088
:1014E000282B392B4A2B5B2BEA18FB080C091D090A
:1014F000B695A79597958795EE0CFF1C001F111FB9
:101500006F5F7F4F6F31710531F7DA01C9018F7756
:101510009070A070B07080349105A105B10561F4A0
:1015200027FD0AC0E114F1040105110529F0205C32
:101530003F4F4F4F5F4F20782D873E874F87588B07
:10154000BE01675F7F4FCB010E94B40C6896EAE052
:101550000C94BB0EA8E1B0E0E0EBFAE00C94A30E13
:1015600069837A838B839C832D833E834F83588743
:1015700089E0E82EF12CEC0EFD1ECE010196B7019C
:101580000E94890D8E010F5E1F4FCE010596B80196
:101590000E94890D8985823040F08989823028F047
:1015A000C701B8010E94010E01C081E06896E6E023
:1015B0000C94BF0EA8E1B0E0E0EEFAE00C94A30EAC
:1015C00069837A838B839C832D833E834F835887E3
:1015D00089E0E82EF12CEC0EFD1ECE010196B7013C
:1015E0000E94890D8E010F5E1F4FCE010596B80136
:1015F0000E94890D8985823040F08989823028F0E7
:10160000C701B8010E94010E01C08FEF6896E6E0A5
:101610000C94BF0EA8E1B0E0E0E1FBE00C94A30E57
:1016200069837A838B839C832D833E834F83588782
:1016300089E0E82EF12CEC0EFD1ECE010196B701DB
:101640000E94890D8E010F5E1F4FCE010596B801D5
:101650000E94890D8985823040F08989823028F086
:10166000C701B8010E94010E01C081E06896E6E062
:101670000C94BF0EA8E0B0E0E0E4FBE00C94A00EF8
:101680009B01AC0183E08983DA01C9018827B7FD9A
:1016900083959927AA27BB27B82E21153105410527
:1016A000510519F482E089833AC08823A9F02030DB
:1016B00080E0380780E0480780E8580729F460E0B8
:1016C00070E080E09FEC30C0EE24FF248701E21A36
:1016D000F30A040B150B02C079018A018EE1C82EB2
:1016E000D12CDC82CB82ED82FE820F831887C80169
:1016F000B7010E94650C01971816190684F4082E8C
:1017000004C0EE0CFF1C001F111F0A94D2F7ED82DB
:10171000FE820F831887C81AD90ADC82CB82BA826C
:10172000CE0101960E94B40C2896E9E00C94BC0E00
:10173000ACE0B0E0EEE9FBE00C94A70E69837A839D
:101740008B839C83CE010196BE016B5F7F4F0E940D
:10175000890D8D81823061F1823050F1843021F425
:101760008E81882351F12EC02F81388537FD20C00E
:101770006E812F3131051CF06623F9F023C08EE114
:1017800090E0821B930B29853A854B855C8504C0CC
:1017900056954795379527958A95D2F76623B1F0E8
:1017A00050954095309521953F4F4F4F5F4F0EC05C
:1017B00020E030E040E050E009C02FEF3FEF4FEF76
:1017C0005FE704C020E030E040E050E8B901CA0122
:1017D0002C96E2E00C94C30EA8E0B0E0E2EFFBE050
:1017E0000C949F0E7B018C0161157105810591059B
:1017F00019F482E0898360C083E089838EE1C82E7A
:10180000D12CDC82CB82ED82FE820F831887C80147
:10181000B7010E94650CFC013197F7FF3BC02227FE
:1018200033272E1B3F0B57016801022E04C0D694AC
:10183000C794B794A7940A94D2F740E050E060E0D0
:1018400070E081E090E0A0E0B0E004C0880F991F54
:10185000AA1FBB1F2A95D2F70197A109B1098E21B2
:101860009F21A023B1230097A105B10521F041E0FC
:1018700050E060E070E04A295B296C297D294D83A6
:101880005E836F8378878EE190E08E1B9F0B9C8335
:101890008B8312C0309781F00E2E04C0EE0CFF1C1B
:1018A000001F111F0A94D2F7ED82FE820F83188762
:1018B000CE1ADF0ADC82CB821A82CE0101960E9408
:1018C000B40C2896EAE00C94BB0EEF92FF920F93B3
:1018D0001F937B018C0180E0E81680E0F80681E030
:1018E000080780E0180788F48FEFE816F104010577
:1018F000110531F028F088E090E0A0E0B0E017C0DA
:1019000080E090E0A0E0B0E012C080E0E81680E067
:10191000F80680E0080781E0180728F088E190E0E9
:10192000A0E0B0E004C080E190E0A0E0B0E020E200
:1019300030E040E050E0281B390B4A0B5B0B04C041
:1019400016950795F794E7948A95D2F7F701E25731
:10195000FE4F8081281B310941095109C9011F919E
:101960000F91FF90EF900895DF92EF92FF920F9307
:101970001F93FC01E480F58006811781D18080816E
:10198000823048F480E090E0A0E1B0E0E82AF92A53
:101990000A2B1B2BA5C0843009F49FC0823021F490
:1019A000EE24FF24870105C0E114F10401051105AF
:1019B00019F4E0E0F0E096C0628173819FEF623835
:1019C00079070CF05BC022E83FEF261B370B2A316A
:1019D00031052CF020E030E040E050E02AC0B801B2
:1019E000A701022E04C076956795579547950A94EE
:1019F000D2F781E090E0A0E0B0E004C0880F991F2A
:101A0000AA1FBB1F2A95D2F70197A109B1098E2100
:101A10009F21A023B1230097A105B10521F081E00A
:101A200090E0A0E0B0E09A01AB01282B392B4A2BC3
:101A30005B2BDA01C9018F779070A070B070803491
:101A40009105A105B10539F427FF09C0205C3F4F7E
:101A50004F4F5F4F04C0215C3F4F4F4F5F4FE0E05F
:101A6000F0E02030A0E03A07A0E04A07A0E45A07DF
:101A700010F0E1E0F0E079018A0127C060387105DB
:101A800064F5FB01E158FF4FD801C7018F779070D3
:101A9000A070B07080349105A105B10539F4E7FE5E
:101AA0000DC080E490E0A0E0B0E004C08FE390E0DF
:101AB000A0E0B0E0E80EF91E0A1F1B1F17FF05C0CB
:101AC00016950795F794E794319687E01695079554
:101AD000F794E7948A95D1F705C0EE24FF24870197
:101AE000EFEFF0E06E2F679566276795902F9F7751
:101AF000D794DD24D7948E2F8695492F462B582FC7
:101B00005D29B701CA011F910F91FF90EF90DF90FF
:101B10000895FC01DB01408151812281622F6F77A2
:101B200070E0221F2227221F9381892F880F822B8A
:101B3000282F30E0991F9927991F11969C93119790
:101B400021153105A9F5411551056105710511F4FE
:101B500082E037C082E89FEF13969C938E93129792
:101B60009A01AB0167E0220F331F441F551F6A958E
:101B7000D1F783E08C930DC0220F331F441F551FF4
:101B800012968D919C911397019713969C938E9327
:101B90001297203080E0380780E0480780E458073B
:101BA00058F314962D933D934D935C931797089596
:101BB0002F3F310579F4411551056105710519F47F
:101BC00084E08C93089564FF03C081E08C9312C07D
:101BD0001C9210C02F57304013963C932E931297AF
:101BE00083E08C9387E0440F551F661F771F8A950B
:101BF000D1F7706414964D935D936D937C93179712
:101C000008951F93DC01FB019C91923008F447C0BA
:101C10008081823008F443C0943051F411961C91B5
:101C2000843099F58181682F70E0611B71093FC094
:101C3000843021F0923031F48230B9F181818823EF
:101C400089F12DC011961C9111978230F1F081819C
:101C50001817D9F412962D913C9113978281938194
:101C60008217930794F028173907BCF014968D91CA
:101C70009D910D90BC91A02D248135814681578185
:101C8000281739074A075B0718F4112341F00AC0E7
:101C900082179307A407B50740F4112319F061E0F8
:101CA00070E005C06FEF7FEF02C060E070E0CB0135
:101CB0001F91089597FB092E05260ED057FD04D0DD
:101CC00014D00AD0001C38F45095409530952195D9
:101CD0003F4F4F4F5F4F0895F6F790958095709561
:101CE00061957F4F8F4F9F4F0895A1E21A2EAA1B37
:101CF000BB1BFD010DC0AA1FBB1FEE1FFF1FA217BC
:101D0000B307E407F50720F0A21BB30BE40BF50BB8
:101D1000661F771F881F991F1A9469F76095709541
:101D2000809590959B01AC01BD01CF0108952F9244
:101D30003F924F925F926F927F928F929F92AF925B
:101D4000BF92CF92DF92EF92FF920F931F93CF93A8
:101D5000DF93CDB7DEB7CA1BDB0B0FB6F894DEBF3F
:101D60000FBECDBF09942A88398848885F846E8465
:101D70007D848C849B84AA84B984C884DF80EE80AF
:101D8000FD800C811B81AA81B981CE0FD11D0FB6B8
:101D9000F894DEBF0FBECDBFED010895DF93CF9362
:101DA000CDB7DEB7FE013596619171918091FE024B
:101DB0009091FF02AF010E946E10CF91DF910895C4
:101DC0000F931F93CF93DF938C01E091FE02F0916C
:101DD000FF02838181FF21C0C0E0D0E00DC0E0910F
:101DE000FE02F091FF0220853185BF01F9010995BE
:101DF000892B11F0CFEFDFEFF80181918F0188235C
:101E000071F7E091FE02F091FF02208531858AE0B2
:101E1000BF01F9010995892B11F0CFEFDFEFCE015A
:101E2000DF91CF911F910F91089519F40EF02EC0FC
:101E30007DC032C061D0C8F39638C0F707F80F9262
:101E4000E8942BE33AEA48EB5FE7F3D00F920F9266
:101E50000F924DB75EB70F92ADD0ECE8F0E01FD017
:101E60004F915F91EF91FF91E595EE1FFF1F49F0B4
:101E7000FE57E0684427EE0F441FFA95E1F74195BD
:101E8000550B64D00F9007FE58C0089597F99F67CF
:101E900080E870E060E008959FEF80EC0895DF93A4
:101EA000CF931F930F93FF92EF92DF927B018C01F0
:101EB000689405C0DA2EEF01BAD0FE01E894A5912E
:101EC0002591359145915591AEF3EF01BAD3FE01BD
:101ED0009701A801DA9479F7DF90EF90FF900F91C6
:101EE0001F91CF91DF91089557FD9058440F551FD2
:101EF00059F05F3F71F04795880F97FB991F61F08C
:101F00009F3F79F087950895121613061406551F02
:101F1000F2CF4695F1DF08C0161617061806991F6E
:101F2000F1CF86957105610508940895E894BB2763
:101F300066277727CB0197F908959B01AC0160E0F4
:101F400070E080E89FE35ACAA1CFCEC3D5DFE8F3A3
:101F50009923D9F3940F511DBBF39150504094F045
:101F600059F0882332F0660F771F881F9150504038
:101F7000C1F79E3F510544F7880F911D96958795AF
:101F800097F908955F3FACF0983E9CF0BB2786958B
:101F900077956795B79508F4B1609395C1F7BB0F36
:101FA00058F711F460FFE8CF6F5F7F4F8F4F9F4F5F
:101FB000E3CFBDCFFA01DC01AA0FBB1F9B01AC012F
:101FC000BF5728F422273327442750781FC0B75122
:101FD00088F4AB2F0024469537952795011CA395CF
:101FE000D2F3002069F0220F331F441FB395DAF3B8
:101FF0000DD0ACC861307105A0E88A07B94630F44D
:102000009B01AC016627772788279078309621F0CE
:102010002083318342835383089574D328F079D386
:1020200018F0952309F032CF37CF112480CF5CDF31
:10203000A0F3959FD1F3950F50E0551F629FF001DB
:10204000729FBB27F00DB11D639FAA27F00DB11D34
:10205000AA1F649F6627B00DA11D661F829F2227BD
:10206000B00DA11D621F739FB00DA11D621F839F44
:10207000A00D611D221F749F3327A00D611D231F1A
:10208000849F600D211D822F762F6A2F11249F5768
:1020900050408AF0E1F088234AF0EE0FFF1FBB1F8B
:1020A000661F771F881F91505040A9F79E3F51052A
:1020B00070F0ECCE3CCF5F3FECF3983EDCF38695BE
:1020C00077956795B795F795E7959F5FC1F7FE2BD5
:1020D000880F911D9695879597F908952F923F92B5
:1020E0004F925F926F927F928F929F92AF92BF9228
:1020F000CF92DF92EF92FF920F931F93DF93CF93D4
:10210000CDB7DEB72B970FB6F894DEBF0FBECDBFAD
:102110003C012B015A01FC0117821682838181FD4B
:1021200003C06FEF7FEFC6C19AE0892E1E010894AD
:10213000211C311CF3012381F20123FD859123FF32
:1021400081912F01882309F4B2C1853239F423FD2E
:10215000859123FF81912F01853229F490E0B3010D
:102160000E948A12E7CF982FFF24EE249924FFE1E2
:10217000FF15D0F09B3269F09C3228F4903259F070
:10218000933291F40EC09D3249F0903369F441E0EE
:1021900024C052E0F52A84E0F82A28C098E0F92A01
:1021A00025C0E0E1FE2A22C0F7FC29C0892F805318
:1021B0008A3070F4F6FE05C0989C902C1124980E7D
:1021C00015C0E89CE02C1124E80EF0E2FF2A0EC0B6
:1021D0009E3229F4F6FC6BC140E4F42A07C09C3619
:1021E00019F450E8F52A02C0983649F4F20123FDAB
:1021F000959123FF91912F01992309F0B8CF892F51
:102200008554833018F08052833038F444E050E035
:10221000A40EB51E5FE359830FC0933631F0933798
:1022200079F0933509F056C020C0F501808189838B
:1022300042E050E0A40EB51E610101E010E012C0C2
:10224000F501C080D180F6FC03C06FEF7FEF02C0C4
:10225000692D70E042E050E0A40EB51EC6010E9458
:102260007F128C015FE7F52214C0F501C080D18098
:10227000F6FC03C06FEF7FEF02C0692D70E042E013
:1022800050E0A40EB51EC6010E9474128C0150E8E5
:10229000F52AF3FE07C01AC080E290E0B3010E9465
:1022A0008A12EA948E2D90E008171907A8F30EC041
:1022B000F601F7FC8591F7FE81916F0190E0B30183
:1022C0000E948A12E110EA94015010400115110594
:1022D00079F7EAC0943611F0993669F5F7FE08C02F
:1022E000F501208131814281538184E090E00AC070
:1022F000F501808191819C01442737FD4095542F41
:1023000082E090E0A80EB91E9FE6F92257FF09C0AF
:1023100050954095309521953F4F4F4F5F4FE0E8E6
:10232000FE2ACA01B901A1012AE030E00E94B612DA
:10233000D82ED21840C0953729F41F2D1F7E2AE0D1
:1023400030E01DC01F2D197F9F3661F0903720F4BB
:10235000983509F0ACC00FC0903739F0983709F0C4
:10236000A6C004C028E030E00AC0106114FD14606B
:1023700020E130E004C014FD166020E132E017FFD8
:1023800008C0F501608171818281938144E050E051
:1023900008C0F50180819181BC0180E090E042E0BD
:1023A00050E0A40EB51EA1010E94B612D82ED2187C
:1023B0008FE7F82EF122F6FE0BC05EEFF522D9145E
:1023C00038F4F4FE07C0F2FC05C08FEEF82202C01C
:1023D0001D2D01C0192DF4FE0DC0FE01ED0DF11DE6
:1023E0008081803319F499EEF92208C01F5FF2FE54
:1023F00005C003C08F2D867809F01F5F0F2DF3FCF9
:1024000014C0F0FE0FC01E1510F09D2C0BC09D2CAB
:102410009E0C911A1E2D06C080E290E0B3010E942E
:102420008A121F5F1E15C0F304C01E1510F4E11AB6
:1024300001C0EE2404FF0FC080E390E0B3010E94CE
:102440008A1202FF1DC001FD03C088E790E00EC0A4
:1024500088E590E00BC0802F867891F001FF02C0E4
:102460008BE201C080E2F7FC8DE290E0B3010E94B4
:102470008A1206C080E390E0B3010E948A129A9407
:10248000D914C0F3DA94F101ED0DF11D808190E0D3
:10249000B3010E948A12DD20A9F706C080E290E015
:1024A000B3010E948A12EA94EE20C1F743CEF301F1
:1024B00066817781CB012B960FB6F894DEBF0FBEF5
:1024C000CDBFCF91DF911F910F91FF90EF90DF90E3
:1024D000CF90BF90AF909F908F907F906F905F90C4
:1024E0004F903F902F900895FC01059061507040EF
:1024F0000110D8F7809590958E0F9F1F0895FC01CD
:102500006150704001900110D8F7809590958E0F22
:102510009F1F08950F931F93CF93DF938C01EB01BF
:102520008B8181FF1BC082FF0DC02E813F818C817A
:102530009D812817390764F4E881F9810193F983B3
:10254000E88306C0E885F985802F0995892B31F449
:102550008E819F8101969F838E8302C00FEF1FEFB4
:10256000C801DF91CF911F910F910895FA01AA2719
:10257000283051F1203181F1E8946F936E7F6E5FC6
:102580007F4F8F4F9F4FAF4FB1E03ED0B4E03CD074
:10259000670F781F891F9A1FA11D680F791F8A1F57
:1025A000911DA11D6A0F711D811D911DA11D20D0BE
:1025B00009F468943F912AE0269F11243019305D78
:1025C0003193DEF6CF010895462F4770405D419369
:1025D000B3E00FD0C9F7F6CF462F4F70405D4A33B6
:1025E00018F0495D31FD4052419302D0A9F7EACF7E
:1025F000B4E0A6959795879577956795BA95C9F7AD
:1026000000976105710508959B01AC010A2E06949F
:102610005795479537952795BA95C9F7620F731F58
:10262000841F951FA01D08956DD030F072D020F04A
:1026300031F49F3F11F41EF42FCC0EF4E095E7FB2C
:1026400025CCE92F51DC80F3BA17620773078407A2
:10265000950718F071F49EF569CC0EF4E0950B2EF9
:10266000BA2FA02D0B01B90190010C01CA01A001E4
:102670001124FF27591B99F0593F50F4503E68F13F
:102680001A16F040A22F232F342F4427585FF3CF80
:10269000469537952795A795F0405395C9F77EF451
:1026A0001F16BA0B620B730B840BBAF09150A1F09A
:1026B000FF0FBB1F661F771F881FC2F70EC0BA0F20
:1026C000621F731F841F48F4879577956795B795A8
:1026D000F7959E3F08F0B3CF9395880F08F09927A0
:1026E000EE0F9795879508959F3F31F0915020F414
:1026F000879577956795B795880F911D96958795DE
:1027000097F9089500240A94161617061806090664
:10271000089500240A941216130614060506089557
:04272000F894FFCF5B
:102724005374617274696E67204D4158333031308F
:102734003220284156522053747564696F292E2E15
:102744002E0D0046696E6765722052656D6F766561
:10275400640D0042504D3A25642C2053704F323A98
:1027640025642C20525F526174696F3A25642E25CA
:102774003032640D0A000000000200000000B700BF
:10278400000000000000C84210270000F40100000F
:10279400FAC40000A0400000003F8F44CC3F7EA359
:1027A4000AC23761E142000000000000000000019D
:1027B40002020303030304040404040404040505DB
:1027C40005050505050505050505050505050606B3
:1027D4000606060606060606060606060606060695
:1027E4000606060606060606060606060606070783
:1027F4000707070707070707070707070707070765
:102804000707070707070707070707070707070754
:102814000707070707070707070707070707070744
:102824000707070707070707070707070707080832
:102834000808080808080808080808080808080814
:102844000808080808080808080808080808080804
:1028540008080808080808080808080808080808F4
:1028640008080808080808080808080808080808E4
:1028740008080808080808080808080808080808D4
:1028840008080808080808080808080808080808C4
:1028940008080808080808080808080808080808B4
:0E28A4000808080808080808080808080808B6
:00000001FF
