:0A0000000C9485000C9400000C9491
:10000A0000000C9400000C9400000C9400000C9466
:10001A0000000C9400000C9400000C9400000C9456
:10002A0000000C9400000C9400000C9400000C9446
:10003A0000000C9400000C9400000C9400000C9436
:10004A0000000C9400000C9400000C9400000C9426
:10005A0000000C9400000C9400000C9400000C9416
:10006A0000000C9400000C9400000C9400000C9406
:10007A0000000C9400000C9400000C9400000C94F6
:10008A0000001027E80364000A00010000100001C4
:10009A001000010053797374656D20537461727492
:1000AA000D0A00436865636B696E67204D415833DA
:1000BA003031303220436F6E6E656374696F6E2E15
:1000CA002E2E0D0A00526561642050617274204917
:1000DA00443A20307825303258200028537563631B
:1000EA0065737321290D0A00284661696C202D2049
:1000FA00436865636B20576972696E67290D0A0048
:10010A00F894EE27ECBBF1E0F5BFE5BFE0936C0095
:10011A008DE0A2E0BB27ED938A95E9F780E090E1B4
:10012A00A0E0B1E0ED930197E9F78BBFEFEFEDBFE8
:10013A00E0E1EEBFC0E0D5E00C94E600E0E0E09339
:10014A009000E7E6E9B9E8E1EAB9E6E0E09395006C
:10015A000895E0E0E0937100E8E4E0937000089508
:10016A00E4EAE0937400E0917400E078E1F3089522
:10017A00E4E9E093740008951A931A2F1093730018
:10018A00E4E8E0937400E0917400E078E1F317C0CA
:10019A00E4E8E0937400E0917400E078E1F3E09120
:1001AA00730008951A93DCDFAEEAE6DFAFEFE4DF0F
:1001BA00D7DFAFEAE1DFECDF1E2FDADFE12F19919B
:1001CA000895BCDFC6DFA8EEB3E0E0D1EEE9F0E0C7
:1001DA009FD1EDEAF0E09CD1E5DF1E2FEFECF0E0D5
:1001EA00FA93EA93E12FFF2766277727CAD184E09B
:1001FA004FD12696153119F4E5EEF0E002C0E2EF90
:10020A00F0E0FA93EA9380E043D12296A8EEB3E0B5
:10021A00BDD1E2CFFFCFAA935D9BFECFE881ECB9B7
:10022A00219608959AD18D013C81A32FF4DFD8013C
:10023A00ED91FD913196FE93EE9396D12596089510
:10024A00BA93AA93269787D110E0AC85BD85E0E0E2
:10025A00F0E0ED93FC93EA89FB893196EA8BFB8BFC
:10026A003197E4912E2FE03009F40BC1E12FE030F1
:10027A0031F4253211F411E001C050D101C1E1304D
:10028A00A1F4253211F44AD1FAC012E040E000E0AC
:10029A002D3211F401E0F4C02B3211F44BE2F0C01C
:1002AA00203211F440E2ECC002C0E23039F450E0EE
:1002BA0013E0203311F40068E3C003C0E33009F00F
:1002CA00DFC0203310F02A3308F007C0AAE05A9F93
:1002DA00502DE22FE0535E0FD3C0E22FE33639F4FC
:1002EA0024D1E889F989A481AA9325D1C8C0E33722
:1002FA0029F41BD126D1F3D01E2F07C0E03749F4C9
:10030A0014D11FD1F8D01E2F086002600F7730E099
:10031A003AC0E43611F0E93611F4046002C0E53758
:10032A0031F4ECE8F0E0EE83FF8315E00CC0E83529
:10033A0011F4086003C0E83709F0A1C0E6E9F0E06B
:10034A00EE83FF8314E002FF15C0EFD0A889B989B4
:10035A001496ED91FD91EA87FB87AB85AA2322F4D7
:10036A0008D1EA87FB874DE2403011F01F5F01C0D8
:10037A000B7F09C0DAD0A889B9891496ED91FC914E
:10038A001197EA87FB8700FD10C0151770F407FF65
:10039A0008C002FF04C00B7F242F115001C020E3C4
:1003AA0001C020E2BBD05150F0CF312F01FF16C05F
:1003BA00303099F003FF06C0EE81FF812591EE836C
:1003CA00FF8305C0AE81BF812D91AE83BF83A6D0C6
:1003DA00503009F051503150EBCF48C020E3EE8144
:1003EA00FF81CBD0E887F987EE81FF813296EE83D1
:1003FA00FF83E885F985AA85BB85AE17BF0750F04C
:10040A002F5FA885B985EA85FB85EA1BFB0BEA877E
:10041A00FB87EFCF2A3328F003FF02C0295F01C010
:10042A00295D04FD19C0213320F4A885B9851197E7
:10043A0009F409C0531710F000FF01C011C020E2EF
:10044A0007FF0AC020E3006102FF06C00B7F4A9340
:10045A0072D0503009F0515061D0503009F05150EB
:10046A003150A885B985129708F0B8CF00FF07C0A8
:10047A00503029F05150E0E2EA935DD0F9CF10E014
:10048A00EACEAC85BD85ED91FD916CD06496089558
:10049A00FF92F82E26971A930A93DE0114960024E7
:1004AA00AF0DB01D8D01E0E0EC83ED83EE83EF83A9
:1004BA00DE0118960024AF0DB01DED91FD91FA935F
:1004CA00EA931A930A93E7E1F1E0FA93EA93DE01D9
:1004DA001896B6DE198108812896FF900895BA9376
:1004EA00AA93A991B991EE27FF276D91662311F07E
:1004FA003196FBCF0895BA93AA93AA27BB27E9910D
:10050A00F9910590002011F01196FBCFFD01089595
:10051A00FA93EA9380E0BCDF229608952A93AD8588
:10052A00BE85EF85F88909950895E889F989349790
:10053A00E88BF98B0895AD85BE85EF85F889099515
:10054A000895A889B9891496ED91FD91EE83FF83E8
:10055A00AE81BF8108955A934A933A932A931A9384
:10056A000A9308955D814C813B812A811981088112
:10057A000895F195E195F04008950590F491E02DE4
:10058A0008957A936A93FA93EA930895109639F044
:10059A00A89580EA9FE00197F1F71197C9F70895A6
:00000001FF
