:080000000C9476000C94000042
:100008000C9400000C9400000C9400000C94000068
:100018000C9400000C9400000C9400000C94000058
:100028000C9400000C9400000C9400000C94000048
:100038000C9400000C94A6000C9400000C94000092
:100048000C9400000C9400000C9400000C94000028
:100058000C9400000C9400000C9400000C94000018
:100068000C9400000C9400000C9400000C94000008
:100078000C9400000C9400000C9400000C940000F8
:100088000C9400001027E80364000A000100001027
:10009800000110000100000053797374656D20524F
:1000A8006561647920284C697465290D0A004669E0
:1000B8006E6765722052656D6F7665640D0A004241
:1000C800504D3A25642C2053704F323A25642C2029
:1000D800523A25642E253032640D0A0002000400CD
:1000E8009E000000F894EE27ECBBF1E0F5BFE5BFF9
:1000F800E0936C008DE0A2E0BB27ED938A95E9F7C9
:1001080080E090E1A0E0B1E0ED930197E9F7E4EE3B
:10011800F0E085919591009761F0A591B5910590D2
:100128001590BF01F00105900D920197E1F7FB01D1
:10013800F0CF8BBFEFEFEDBFE0E1EEBFC0E0D5E061
:100148000C9486026A937A93AA93BA93EA93FA93E1
:10015800EFB7EA93A0E0B5E0BCD4EF5FFF4F6F4F75
:100168007F4F7E936E93FE93EE93E991EFBFF991E3
:10017800E991B991A9917991699118952497F89481
:10018800E0910005F0910105609102057091030569
:10019800A5D47894E881F9816A817B8124960895B1
:1001A800EBE0E3BFE0E0E2BFE9EFE1BFE7B7E26021
:1001B800E7BF089598D41496E0E0EC93CDC097D4A7
:1001C800E481E03021F49AD49ED4A3D417C096D405
:1001D800A3E0B9E08AE89EE3F7D67F936F93FF9395
:1001E800EF93D80176D4AFE7BBEF8AE39FE3ECD671
:1001F800AF91BF918F919F9198D685D4D80169D43A
:100208008EC071D41896E0E0EC93A6C070D4E08557
:10021800E03031F4D80182D41896E1E0EC9321C0A3
:100228006DD486D47F936F93FF93EF93D801149680
:1002380050D47ED4AF91BF918F919F91C3D56ED684
:100248007F936F93FF93EF93D80143D4A2E6B0E175
:1002580088E79FE3B9D6AF91BF918F919F9165D6FB
:1002680052D46CD4D80135D45AC03DD41496E0E0A9
:10027800EC9372C0A2D52497E0E0E883E983EA838F
:10028800EB831A930A930A851B85F801A481A13090
:1002980061F4D8011ED4AE81BF818885998556D472
:1002A800EA83FB836C837D8301C033D457D42BD47A
:1002B80025D4198108812C96089515D4E0E0F4E23C
:1002C80064E779E450D41496E0E0F4E264E779EC6A
:1002D8004AD4189623D41C964CD43EC06ED51A9393
:1002E8000A930E811F81D80149D410F407D40BD486
:1002F800D801149643D409F008F401C01FD4F801BA
:100308003896FF93EF93DF01E4D3AA81BB818C81F8
:100318009D810BD6AF91BF9126D41C9636D41981F6
:10032800088128960895DFD31C96ED91FC911197CA
:10033800309729F4E0E0F0E060E070E00DC0F801EB
:10034800A085B185828593850D01D8011C96ED9114
:10035800FD91D00120D486D6099119910895E0E045
:10036800E0939000E7E6E9B9E8E1EAB9E6E0E0936E
:1003780095000895E0E0E0937100ECE0E0937000F0
:100388000895E4EAE0937400E0917400E078E1F302
:100398000895E4E9E093740008951A931A2F1093CE
:1003A8007300E4E8E0937400E0917400E078E1F30E
:1003B80019910895E4ECE0937400E0917400E078FA
:1003C800E1F307C0E4E8E0937400E0917400E0789A
:1003D800E1F3E091730008951A930A931A2F0A81A2
:1003E800D0DFAEEADADFA02FD8DFA12FD6DFD1DF4A
:1003F8001981088123960895E9E0EA93A0E4ECDFE7
:10040800A4E6B0E093D6E2E0EA93A0ECE5DFE8E00A
:10041800EA93A0E5E1DFEAE0EA93AFE2DDDFECE0B2
:10042800EA93A4E2D9DFEDE0EA93A4E2D5DFE9E0BC
:10043800EA93A3E0D1DF0895269748D49D014C851F
:100448005D859FDFAEEAA9DFA7E0A7DF9ADFAFEA05
:10045800A4DF10E0153070F4E12FF0E0DE0116960D
:10046800EA0FFB1FFF93EF93A5DFAF91BF91EC93CA
:100478001F5FF0CFA7DFEB878CDFEE8192D397D396
:100488007F936F93FF93EF93EF818BD395D3AF91C6
:10049800BF918F919F9195D3DF01CB01E88596D3CA
:1004A800DA019DD3E9857DD382D37F936F93FF9340
:1004B800EF93EA8576D380D3AF91BF918F919F91C7
:1004C80080D3DF01CB01EB8581D3D90188D305D453
:1004D8002E960895A4E0B5E06DDEA9E0B5E06ADEE9
:1004E800AEE0B5E08EDEA7E1B5E0BFDE7DD35524F2
:1004F80045DEE0933C05F0933D0560933E0570931F
:100508003F050895AC972BDF35DF4ADE7894A8EED7
:10051800B3E00CD6E0EAF0E06DD36EDFDBDFFE017E
:10052800B896FA93EA93DE01969686DFE8A5F9A5D0
:100538006AA57BA5BED464D3ECA1FDA16EA17FA161
:10054800B8D463D3A8A5B9A58AA59BA5A131E7E22C
:10055800BE07E0E08E07E0E09E07D0F00FDEDF0187
:10056800CB01E0913C05F0913D0560913E0570910D
:100578003F05AE1BBF0B860B970BA53FE1E0BE07FF
:10058800E0E08E07E0E09E0710F0E1E05E2E06C096
:10059800552021F09FDFE6EBF0E02CD3552009F43D
:1005A8001DC1E4E0F5E036D30ADE2AD3E9E0F5E040
:1005B80038D305DE2AD3ECE1F5E02CD38FDEEAE26E
:1005C800F5E02FD38BDEEEE0F5E024D31FDEE88FD5
:1005D800F98F6A8F7B8FE7E1F5E0FA93EA93AA8DAA
:1005E800BB8D8C8D9D8D46DEEC8BFD8B6E8B7F8B52
:1005F800A0914005B0914105809142059091430535
:10060800EED31CF4AF89AA230AF00BC0E1E04E2E0A
:10061800B5DDE0934405F093450560934605709376
:10062800470506D3DCD30CF44424442039F000D326
:10063800E0E0F0E06AEF74EC59D508F0C3C0FDD2F1
:10064800CED349F003D3ED32A1E0FA07A0E06A0760
:10065800A0E07A070CF4B6C0F9D2E88BF98B6A8B64
:100668007B8BA0E6BAEE80E090E08DD38F01E0911D
:100678002005F09121056091220570912305A09134
:100688001C05B0911D0580911E0590911F0546D44B
:100698007F936F93FF93EF93ACE1B5E044DEAF91A6
:1006A800BF918F919F91DED4EC87FD876E877F87FE
:1006B800E0912E05F0912F0560913005709131057C
:1006C800A0912A05B0912B0580912C0590912D05BC
:1006D80025D47F936F93FF93EF93AAE2B5E023DECF
:1006E800AF91BF918F919F91BDD4E887F9876A87B1
:1006F8007B87E0E0EC83ED83EE83EF83B5D2309720
:100708006040704051F0B0D2AC85BD858E859F8524
:10071800A9D4EC83FD836E837F83ABD2ADE2B3E4CF
:100728008CEC9FE351D4AAD24FD47F936F93FF935D
:10073800EF939FD2A1EDB2EA8AE092E445D4AF915B
:10074800BF918F919F913ED3E9D3A5ECB0E681EE9E
:1007580092E4EBD3C3D10932E0E01E0724F00C3D4C
:10076800E0E01E070CF01CC084D26ED39F0186D235
:1007780012D2ECD169D3AF01552312F4B5D2AF012F
:10078800E7ECF0E0FA93EA93F8017DD2E7D15CD385
:100798007AD2F90178D2FA0176D280E15AD16296FA
:1007A80023D2E0914405F09145056091460570918A
:1007B8004705E0933805F093390560933A0570933F
:1007C8003B054424EC89FD896E897F89E0934005C7
:1007D800F09341056093420570934305AAE0B0E0A9
:1007E800A5D49DCEFFCFAA935D9BFECFE881ECB93F
:1007F800219608956DD28D013C81A32FF4DFD80195
:10080800C4D16DD225960895BA93AA9326975ED23D
:1008180010E0AC85BD85ADD1EA89FB893196EA8BBC
:10082800FB8B3197E4912E2FE03009F40BC1E12FB7
:10083800E03031F4253211F411E001C02AD201C1AF
:10084800E130A1F4253211F424D2FAC012E040E0DC
:1008580000E02D3211F401E0F4C02B3211F44BE228
:10086800F0C0203211F440E2ECC002C0E23039F4AA
:1008780050E013E0203311F40068E3C003C0E33014
:1008880009F0DFC0203310F02A3308F007C0AAE0CF
:100898005A9F502DE22FE0535E0FD3C0E22FE3366C
:1008A80039F4FED1E889F989A481AA93FFD1C8C097
:1008B800E33729F4F5D100D2F3D01E2F07C0E03773
:1008C80049F4EED1F9D1F8D01E2F086002600F77F5
:1008D80030E03AC0E43611F0E93611F4046002C0A1
:1008E800E53731F4ECE8F0E0EE83FF8315E00CC067
:1008F800E83511F4086003C0E83709F0A1C0E6E95B
:10090800F0E0EE83FF8314E002FF15C0C9D1A88987
:10091800B9891496ED91FD91EA87FB87AB85AA23E7
:1009280022F4E2D1EA87FB874DE2403011F01F5FE5
:1009380001C00B7F09C0B4D1A889B9891496ED917B
:10094800FC911197EA87FB8700FD10C0151770F41A
:1009580007FF08C002FF04C00B7F242F115001C0FD
:1009680020E301C020E295D15150F0CF312F01FF93
:1009780016C0303099F003FF06C0EE81FF81259143
:10098800EE83FF8305C0AE81BF812D91AE83BF8307
:1009980080D1503009F051503150EBCF48C020E39E
:1009A800EE81FF8101D2E887F987EE81FF813296D7
:1009B800EE83FF83E885F985AA85BB85AE17BF0757
:1009C80050F02F5FA885B985EA85FB85EA1BFB0BEC
:1009D800EA87FB87EFCF2A3328F003FF02C0295F9D
:1009E80001C0295D04FD19C0213320F4A885B9850B
:1009F800119709F409C0531710F000FF01C011C086
:100A080020E207FF0AC020E3006102FF06C00B7F57
:100A18004A934CD1503009F051503BD1503009F035
:100A280051503150A885B985129708F0B8CF00FF0A
:100A380007C0503029F05150E0E2EA9337D1F9CF9E
:100A480010E0EACEAC85BD85ED91FD9146D1649666
:100A58000895FF92F82E26971A930A93DE011496AA
:100A68000024AF0DB01D8D01E0E0EC83ED83EE8333
:100A7800EF83DE0118960024AF0DB01DED91FD91B6
:100A8800FA93EA931A930A93EEEFF3E0FA93EA9350
:100A9800DE011896B9DE198108812896FF9008951D
:100AA800BA93AA93A991B991EE27FF276D9166236E
:100AB80011F03196FBCF0895BA93AA93AA27BB27C2
:100AC800E991F9910590002011F01196FBCFFD01F5
:100AD8000895ED91FD916D917D910895E883F983D5
:100AE8006A837B8308951A930A938D01089565D1CB
:100AF8001A930A930E811F81F8010895EA81FB81F8
:100B08006C817D810895D801ED93FD936D937C935D
:100B18000895D8011496E1E0EC930895E0E0F0E040
:100B280060E070E0ED93FD936D937C93D801089598
:100B3800A1E3B8E08CE79FE347D20895DFDFD8014F
:100B48001496ED93FD936D937C9308953BD1E6D174
:100B5800A0E0B0E088EC92E437D20895EE81FF81FE
:100B6800688579850895ED93FD936D937C93D801FD
:100B78000895E0E0F0E0ED93FC930895AADFAA81E0
:100B8800BB818C819D81B2D20895ED91FD91319602
:100B9800FE93EE9308956F2F660F660B762F8BD119
:100BA8000895F0E06F2F660F660B762F08956E2F6D
:100BB8007F2FE0E0F0E00895DF01CB01E8E0A8D066
:100BC8000895EA2BFB2B682B792B0895FF276627BE
:100BD8007727F7DFEF7FFF7F637070700895ED93DD
:100BE800FD936D937C930895ACE1B5E066DBAAE2D2
:100BF800B5E063CBFA93EA9380E02BDF2296089561
:100C0800E8A3F9A36AA37BA30895EC8FFD8F6E8FE9
:100C18007F8F0895FA93EA93AAA1BBA18CA19DA105
:100C28000895FA93EA93AE8DBF8D88A199A108958E
:100C3800AC89BD898E899F890895A0913805B091A6
:100C4800390580913A0590913B050895F6DFE091CA
:100C58004405F09145056091460570914705EA1BEA
:100C6800FB0B680B790B0895E885F9856A857B8508
:100C78000895EC81FD816E817F810895AC81BD81ED
:100C88008E819F8108956F2F660F660B762F90D007
:100C980008952A93AD85BE85EF85F889099508954D
:100CA800E889F9893497E88BF98B0895AD85BE8575
:100CB800EF85F88909950895A889B9891496ED9161
:100CC800FD91EE83FF83AE81BF8108955A934A93C5
:100CD8003A932A931A930A9308955D814C813B8134
:100CE8002A81198108810895F195E195F0400895C8
:100CF800F09560957095E195FF4F6F4F7F4F089580
:100D0800B09580959095A195BF4F8F4F9F4F0895AF
:100D1800EE230E2EE8E01E2EFD01BC0179F0011431
:100D280038F0762F6F2FFE2FE0E00118C1F70895F5
:100D3800EE0FFF1F661F771F0A94D1F708953F93A0
:100D48004F935F9300241124A00130E2AA0FBB1F28
:100D5800881F991F001C111C441F551F0E1A1F0ABB
:100D6800460B570B28F40E0E1F1E461F571F01C0B7
:100D7800A1603A9559F7FD01BC01D001CA015F9104
:100D88004F913F91089504D0DADF0EF4B1DF089552
:100D9800E89477FF02C0ACDF689497FF04C0B0DF27
:100DA80000F8039400FA08950590F491E02D089551
:100DB8007A936A93FA93EA9308959A938A93BA93E3
:100DC800AA930895182E862F612D192E972F712D0D
:100DD8001B2EBF2FF12D1A2EAE2FE12D08950024C2
:100DE8000A160B06080609060895552342F45038DA
:100DF80011F4E0FF04C03196691F791F6BF050E8C9
:100E0800572711F45F93CFC05F3F31F0660F000C96
:100E180057956795752F08955F9300200AF0CEC007
:100E2800C7C050E8192E1522880F991F9527550F0E
:100E3800879550E8072E0522660F771F7527550FEF
:100E480067950895689401C0E8945F93F2DF70385D
:100E580018F07F3F08F4A7C056E1571BAAF4519534
:100E680058300EF4593030F0EFEFFFEF6FEF7FE7B7
:100E780077F91AC077275523B9F0EE0FFF1F661FC1
:100E8800771F5A95D1F710C07727583028F0EF2FE1
:100E9800F62F672F5850F9CF552331F0769567957F
:100EA800F795E7955A95D1F700200AF421DF5F916D
:100EB8000895689401C0E894309760407040B1F09C
:100EC800002426F0772312F4009412DF172E7EE117
:100ED800112032F07A95EE0FFF1F661F111CF9CF13
:100EE800EF2FF62F612D5F938ADF5F9108954F935F
:100EF800AF01FD01DA01AB01BC01CA01402D012C93
:100F0800142E4F910895EA0FFB1F681F0895E0956E
:100F1800F0956095EF5FFF4F6F4F08955F9381DF06
:100F2800903871F150E8152604C05F937ADF903845
:100F380039F1703821F1572F591B2BF112F4D7DFF3
:100F4800FACF583118F0AA27BB278827583028F03D
:100F5800AB2FB82F88275850F9CF552329F08695FD
:100F6800B795A7955A95D9F7502D512572F0CBDF33
:100F780038F46795F795E795739513F41FC0B7DFB5
:100F88003EDF5F910895D8F7FBCFEA1BFB0B680B98
:100F980051F010F40094BBDF662392F3EE0FFF1FAD
:100FA800661F7A95CBF7EE27FF27BF015F9108955B
:100FB800EFEFFFEF6FE77FEF5F910895EFEFFFEF40
:100FC8006FE77FE75F9108955F932BDF703859F3E0
:100FD800903849F301240894791F23F424F300205E
:100FE8003AF3ECCF0F921F932F933F934F93112710
:100FF80022279927689FA0018F9F302D410D591FE7
:101008006B9F300D411D591F8E9F27D0BF9F25D044
:101018006A9F23D0BE9F1DD0AF9F1BD0AE9F110DDE
:10102800291F391F491F591FE32FF42F652F522FEE
:101038004F913F912F911F910F9066232AF0550FE2
:10104800EE1FFF1F661F02C073954BF2CEDE5F9145
:101058000895100D211D391F02C0200D311D491F93
:10106800591F08955F93DDDE703821F411200AF4CA
:101078009FCFA4CF903809F496CF01240894970BFA
:101088001BF4D4F30020F3CF792F1F932F933F93B2
:101098004F931124112722273327A90190E2AE1775
:1010A800BF078607410730F0AE1BBF0B860B410B0D
:1010B800089401C08894551F221F331F111CAA1FB2
:1010C800BB1F881F441F9A9551F7F901612D4F9155
:1010D8003F912F911F91662332F0550FEE1FFF1F8E
:1010E800661F7A954BF281DE5F91089599239AF0F5
:1010F800772342F0971748F029F4AE17BF07860701
:1011080020F031F09894889408959894089408955C
:101118001894889408957723C2F7971798F3A9F736
:10112800EA17FB07680788F399F3ECCF109639F0B4
:10113800A89580EA9FE00197F1F71197C9F70895FC
:00000001FF
