:0A0000000C9469000C9400000C94AD
:10000A0000000C9400000C9400000C9400000C9466
:10001A0000000C9400000C9400000C9400000C9456
:10002A0000000C9400000C9400000C9400000C9446
:10003A0000000C9487000C9400000C9400000C94AF
:10004A0000000C9400000C9400000C9400000C9426
:10005A0000000C9400000C9400000C9400000C9416
:10006A0000000C9400000C9400000C9400000C9406
:10007A0000000C9400000C9400000C9400000C94F6
:10008A000000000000000000000000000000000066
:10009A00000000000048C20000000000000000004C
:1000AA0000002575253034752C302C302C302C303E
:1000BA000D0A002575253034752C25642C25642CF1
:1000CA00302C25640D0A0000F894EE27ECBBF1E011
:1000DA00F5BFE5BFE0936C008DE0A2E0BB27ED938E
:1000EA008A95E9F780E090E1A0E0B1E0ED9301970D
:1000FA00E9F78BBFEFEFEDBFE0E1EEBFC0E0D5E07F
:10010A000C94A8016A937A93AA93BA93EA93FA93FE
:10011A00EFB7EA93A0E0B5E003D4EF5FFF4F6F4F6C
:10012A007F4F7E936E93FE93EE93E991EFBFF99121
:10013A00E991B991A9917991699118952497F894BF
:10014A00E0910005F09101056091020570910305A7
:10015A00E883F9836A837B83789424960895EBE095
:10016A00E3BFE0E0E2BFE9EFE1BFE7B7E260E7BF84
:10017A000895E0E0E0939000E8E0E9B9E8E1EAB93F
:10018A00E6E0E09395000895E0E0E0937100ECE08A
:10019A00E09370000895E4EAE0937400E09174003B
:1001AA00E078E1F30895E4E9E093740008951A937E
:1001BA001A2F10937300E4E8E0937400E09174003E
:1001CA00E078E1F319910895E4ECE0937400E0918A
:1001DA007400E078E1F307C0E4E8E0937400E0918A
:1001EA007400E078E1F3E091730008951A930A939A
:1001FA001A2F0A81D0DFAEEADADFA02FD8DFA12FCB
:10020A00D6DFD1DF1981088123960895E9E0EA93C0
:10021A00A0E4ECDFA4E6B0E039D6E2E0EA93A0EC91
:10022A00E5DFE8E0EA93A0E7E1DFEAE0EA93AFE698
:10023A00DDDFECE0EA93AFE5D9DFEDE0EA93AFE585
:10024A00D5DFE9E0EA93A3E0D1DF0895269729D420
:10025A009D014C855D859FDFAEEAA9DFA7E0A7DF98
:10026A009ADFAFEAA4DF10E0153070F4E12FF0E076
:10027A00DE011696EA0FFB1FFF93EF93A5DFAF91FE
:10028A00BF91EC931F5FF0CFA7DFEB878CDFEE8186
:10029A004CD351D37F936F93FF93EF93EF8145D361
:1002AA004FD3AF91BF918F919F914FD3DF01CB0174
:1002BA00E88550D3DA0157D3E98537D33CD37F9306
:1002CA006F93FF93EF93EA8530D33AD3AF91BF91FF
:1002DA008F919F913AD3DF01CB01EB853BD3D901B3
:1002EA0042D3E6D32E9608956FD41A930A930E81B9
:1002FA001F81F801E481E03041F43AD3D80133D3C5
:10030A00D8011496E1E0EC9318C0D80109D3AAE900
:10031A00B9E989E19FE34CD57F936F93FF93EF93FC
:10032A0027D3ADECBCEC8CEC9EE342D5AF91BF91E8
:10033A008F919F91EED4D80116D3D801F1D21981A9
:10034A00088128960895E69780E262E070E0ECE87A
:10035A00F0E0B5D340E050E00CDF16DF00DF789420
:10036A00A8EEB3E093D552DF08D3E983A981A4307C
:10037A0030F40BD313D3E981EF5FE983F7CFFE01A2
:10038A00F296FA93EA93DE01D09660DF0CD3CED3CD
:10039A008F0109D3FED39F01AAA9BBA98CA99DA944
:1003AA00A031E7E2BE07E0E08E07E0E09E07C8F46E
:1003BA00E4D2E88FE98FE0E0F0E068E472ECEB8BDE
:1003CA00FC8B6D8B7E8BAAE0B0E060D5ECEAF0E0A6
:1003DA00F3D2EAA1FBA1FBD2F2D38CE061D22E9632
:1003EA00CECFEAA9FBA96CA97DA957D4F5D2E4E03E
:1003FA00F5E0FA93EA93ACA5BDA58EA59FA574DF97
:10040A00EBD2EFD230976040704011F4EFD2F3D2C2
:10041A00E8D2A3E3B3E383E79FE3CAD47F936F935E
:10042A00FF93EF93E3D2ADECBCEC8CE49DE3C0D434
:10043A00AF91BF918F919F916CD4DDD2AEA1BFA134
:10044A0088A599A5D3D25ED4EAA3FBA36CA37DA306
:10045A00EB89FC896D897E89D3D228F4EAA1FBA1B4
:10046A006CA17DA10BC0D2D2E4EAF0E76DE77FE38D
:10047A009FD4A0E0B0E080E09FEB4BD4EB8BFC8BE9
:10048A006D8B7E8BC3D2EAE9F9E969E17FE390D407
:10049A00EF87F88B698B7A8BB3D208F083C0EF8928
:1004AA00E03009F07EC0E1E0EF8B48DEDF01CB01EE
:1004BA00EE8DFF8D68A179A1AE1BBF0B860B970B42
:1004CA00A139E1E0BE07E0E08E07E0E09E0708F40C
:1004DA0068C034DEAE8DBF8D88A199A1EA1BFB0BE3
:1004EA00680B790BEA8FFB8F6C8F7D8F27DEEE8F7F
:1004FA00FF8F68A379A38FD230976040704009F4C8
:10050A0050C089D2A0E6BAEE80E090E033D3AF01C2
:10051A004932E0E05E0724F04C3DE0E05E070CF073
:10052A0040C0EE81F0E0DE011796EE0FFF1FEA0FE2
:10053A00FB1F40835183EE81F0E03196A3E0B0E0E7
:10054A001ED3EE83E0E0EA83EB83EC83ED83E8835A
:10055A00E983A981A430C8F418D2ED91FC911197CE
:10056A00309779F012D2ED91FD915AD2EA0FFB1F22
:10057A00681F791FEA83FB836C837D83E881EF5FC1
:10058A00E883E981EF5FE983E4CFA881A13038F0FD
:10059A00E881F0E045D2EED2E88FF98F02C0488FA9
:1005AA00598F02C0E0E0EF8BEDEBF0E005D2ECA54D
:1005BA00FDA56EA57FA53CD30AD201D3ED8DFE8D94
:1005CA006F8D78A135D303D2FAD2EAA5FBA5FFD164
:1005DA00F6D284E165D16696AAE0B0E057D4CFCED0
:1005EA00FFCFAA935D9BFECFE881ECB921960895CF
:1005FA005AD28D013C81A32FF4DFD801ED91FD91F0
:10060A003196FE93EE9356D225960895BA93AA93FD
:10061A002B9747D210E0A989BA89C0D1EF89F88D02
:10062A003196EF8BF88F3197E4912E2FE03009F451
:10063A0030C1E12FE03031F4253211F411E001C06C
:10064A00F4D126C1E130A1F4253211F4EED11FC153
:10065A0012E040E000E02D3211F401E019C12B3222
:10066A0011F44BE215C1203211F440E211C102C06B
:10067A00E23039F450E013E0203311F4006808C185
:10068A0002C0E33091F4203310F02A3308F007C097
:10069A00AAE05A9F502DE22FE0535E0FF9C02C3684
:1006AA0019F4026015E0F4C003C0E53009F0F0C0A7
:1006BA00E22FE33639F4C0D1ED89FE89A481AA93E9
:1006CA00C1D1E5C0E33729F4B7D1C2D110D11E2F69
:1006DA0007C0E03751F4B0D1BBD115D11E2F086045
:1006EA000F77E0E0E88B30E059C0E43611F0E936E4
:1006FA0011F4046002C0E53791F4EAE0E88B01FFE7
:10070A0007C0E0E0FAEC6AE97BE3ACD11AE01FC06B
:10071A00E0E1F7E260E070E0A5D115E018C0E83545
:10072A0011F4086003C0E83709F0B1C0E0E1E88BD2
:10073A0001FF07C0E0E0F0E060E070E193D118E06B
:10074A0006C0E0E0F0E160E070E08CD114E001FF67
:10075A0006C072D1AD89BE8914962BD20AC002FF97
:10076A0004C06AD184D133D104C066D180D166274E
:10077A007727EC87FD876E877F8702FF0FC0AF85DB
:10078A00AA233AF4EC85FD856E857F85A8D176D1BA
:10079A004DE2403011F01F5F01C00B7F00FD10C019
:1007AA00151770F407FF08C002FF04C00B7F242F3F
:1007BA00115001C020E301C020E237D15150F0CFDF
:1007CA00312FE889E030B1F4303099F003FF06C0E8
:1007DA00EE81FF812591EE83FF8305C0AE81BF8143
:1007EA002D91AE83BF8321D1503009F05150315041
:1007FA00EBCF44C048D19AD12E2F2A3030F003FFD4
:10080A0002C0295C01C0295A01C0205D04FD1EC036
:10081A00213348F441D1A130E0E0BE07E0E08E0781
:10082A00E0E09E0709F409C0531710F000FF01C069
:10083A0011C020E207FF0AC020E3006102FF06C0E0
:10084A000B7F4A93FFD0503009F05150EED0503010
:10085A0009F05150315017D19CD110D1E8891CD1DF
:10086A00FF276627772762D1FDD0E885F9856A8553
:10087A007B8530976040704009F0BCCF00FF07C00D
:10088A00503029F05150E0E2EA93DCD0F9CF10E081
:10089A00C5CEA989BA89ED91FD910AD169960895C3
:1008AA00FF92F82E26971A930A93DE0114960024D3
:1008BA00AF0DB01D8D01E0E0EC83ED83EE83EF8395
:1008CA00DE0118960024AF0DB01DED91FD91FA934B
:1008DA00EA931A930A93EDEFF2E0FA93EA93DE01B0
:1008EA00189694DE198108812896FF900895BA9384
:1008FA00AA93A991B991EE27FF276D91662311F06A
:10090A003196FBCF0895BA93AA93AA27BB27E991F8
:10091A00F9910590002011F01196FBCFFD01089581
:10092A00ED91FD916D917D910895F0E06F2F660F25
:10093A00660B762F08956E2F7F2FE0E0F0E0089582
:10094A00DF01CB01E8E0DBD00895EA2BFB2B682B13
:10095A00792B0895FF2766277727F7DFEF7FFF7F39
:10096A00637070700895ED93FD936D937C93089571
:10097A00EA81FB816C817D810895E0E0E0930805BE
:10098A00EEA3EFA3E8A7E9A70895E981F0E0DE0165
:10099A001796EE0FFF1FAE0FBF1F0895E0E0F0E0BD
:1009AA00ED93FC930895AAA9BBA98CA99DA9E0E19E
:1009BA00F7E260E070E00895FA93EA93F801662797
:1009CA007727FDD0F90166277727F9D008956F2F89
:1009DA00660F660B762F0895EAA7FBA76CA77DA77B
:1009EA000895EEA1FFA168A579A50895EAA5FBA53A
:1009FA006CA57DA50895EEA3FFA368A779A708951E
:100A0A00AAA1BBA18CA19DA121D20895AB89BC89C1
:100A1A008D899E890895EA8DFB8D6C8D7D8D089553
:100A2A00AA81BB818C819D81D2CF2A93AA89BB8955
:100A3A00EC89FD8909950895ED89FE893497ED8B36
:100A4A00FE8B0895AA89BB89EC89FD8909950895C9
:100A5A00AD89BE891496ED91FD91EE83FF83AE8137
:100A6A00BF810895E887F9876A877B870895AD89EA
:100A7A00BE891496ED91FC9111970895EC87FD8734
:100A8A006E877F870895E885F9856A857B85AC85B9
:100A9A00BD858E859F850895A885B9858A859B859C
:100AAA0008955A934A933A932A931A930A93089564
:100ABA005D814C813B812A81198108810895AF9318
:100ACA00BF93DB01AC0FBD1F05900D928A95E1F72C
:100ADA00BF91AF910895F195E195F0400895F09591
:100AEA0060957095E195FF4F6F4F7F4F0895B095D0
:100AFA0080959095A195BF4F8F4F9F4F0895EE23F4
:100B0A000E2EE8E01E2EFD01BC0179F0011438F02A
:100B1A00762F6F2FFE2FE0E00118C1F70895EE0F30
:100B2A00FF1F661F771F0A94D1F708953F934F93CB
:100B3A005F9300241124A00130E2AA0FBB1F881F73
:100B4A00991F001C111C441F551F0E1A1F0A460B21
:100B5A00570B28F40E0E1F1E461F571F01C0A16017
:100B6A003A9559F7FD01BC01D001CA015F914F9135
:100B7A003F91089512D0DADF0EF4B1DF0895E894B8
:100B8A00F7FF02C0A8DF6894EA23FB230EF4A3DF71
:100B9A000895CCDFFD01BC010895E89477FF02C0F7
:100BAA009EDF689497FF04C0A2DF00F8039400FA5E
:100BBA000895ED91FD916D917C91139708957A9323
:100BCA006A93FA93EA9308959A938A93BA93AA93A3
:100BDA000895552342F4503811F4E0FF04C03196C9
:100BEA00691F791F6BF050E8572711F45F93CFC044
:100BFA005F3F31F0660F000C57956795752F089582
:100C0A005F9300200AF0CEC0C7C050E8192E152203
:100C1A00880F991F9527550F879550E8072E0522AB
:100C2A00660F771F7527550F67950895689401C059
:100C3A00E8945F93F2DF703818F07F3F08F4A7C09A
:100C4A0056E1571BAAF4519558300EF4593030F03A
:100C5A00EFEFFFEF6FEF7FE777F91AC0772755239A
:100C6A00B9F0EE0FFF1F661F771F5A95D1F710C014
:100C7A007727583028F0EF2FF62F672F5850F9CFE3
:100C8A00552331F076956795F795E7955A95D1F7FB
:100C9A0000200AF424DF5F910895689401C0E89463
:100CAA00309760407040B1F0002426F0772312F4A8
:100CBA00009415DF172E7EE1112032F07A95EE0F9F
:100CCA00FF1F661F111CF9CFEF2FF62F612D5F93BF
:100CDA008ADF5F9108954F93AF01FD01DA01AB01FD
:100CEA00BC01CA01402D012C142E4F910895EA0F20
:100CFA00FB1F681F0895E095F0956095EF5FFF4F21
:100D0A006F4F08955F9381DF903871F150E815268F
:100D1A0004C05F937ADF903839F1703821F1572F88
:100D2A00591B2BF112F4D7DFFACF583118F0AA2742
:100D3A00BB278827583028F0AB2FB82F8827585060
:100D4A00F9CF552329F08695B795A7955A95D9F7DE
:100D5A00502D512572F0CBDF38F46795F795E7955A
:100D6A00739513F41FC0B7DF3EDF5F910895D8F77C
:100D7A00FBCFEA1BFB0B680B51F010F40094BBDFAE
:100D8A00662392F3EE0FFF1F661F7A95CBF7EE27C5
:100D9A00FF27BF015F910895EFEFFFEF6FE77FEF46
:100DAA005F910895EFEFFFEF6FE77FE75F91089597
:100DBA005F932BDF703859F3903849F30124089474
:100DCA00791F23F424F300203AF3ECCF0F921F93F8
:100DDA002F933F934F93112722279927689FA001AA
:100DEA008F9F302D410D591F6B9F300D411D591F8B
:100DFA008E9F27D0BF9F25D06A9F23D0BE9F1DD02C
:100E0A00AF9F1BD0AE9F110D291F391F491F591FB4
:100E1A00E32FF42F652F522F4F913F912F911F915E
:100E2A000F9066232AF0550FEE1FFF1F661F02C0A0
:100E3A0073954BF2CEDE5F910895100D211D391F77
:100E4A0002C0200D311D491F591F089599239AF098
:100E5A00772342F0971748F029F4AE17BF078607A1
:100E6A0020F031F0989488940895989408940895FD
:100E7A001894889408957723C2F7971798F3A9F7D7
:100E8A00EA17FB07680788F399F3ECCF109639F055
:100E9A00A89580EA9FE00197F1F71197C9F708959D
:00000001FF
