:020000000C945E
:1000020067000C9400000C9400000C9400000C9407
:1000120000000C9400000C9400000C9400000C945E
:1000220000000C9400000C9400000C9400000C944E
:1000320000000C9400000C9400000C9400000C943E
:1000420000000C9400000C9400000C9400000C942E
:1000520000000C9400000C9400000C9400000C941E
:1000620000000C9400000C9400000C9400000C940E
:1000720000000C9400000C9400000C9400000C94FE
:1000820000000C9400000C9400004D4158333031B4
:10009200303220496E697469616C697A696E672EC3
:1000A2002E2E0D0A00496E697420446F6E652E2053
:1000B20052656164696E6720446174612E2E2E0D53
:1000C2000A00256C642C256C640D0A00F894EE2756
:1000D200ECBBF1E0F5BFE5BFE0936C008DE0A2E080
:1000E200BB27ED938A95E9F780E090E1A0E0B1E0CB
:1000F200ED930197E9F78BBFEFEFEDBFE0E1EEBFC4
:10010200C0E0D5E00C944401E0E0E0939000E7E623
:10011200E9B9E8E1EAB9E6E0E09395000895E0E0A4
:10012200E0937100E8E4E09370000895E4EAE0935C
:100132007400E0917400E078E1F30895E4E9E0935B
:10014200740008951A931A2F10937300E4E8E09351
:100152007400E0917400E078E1F319910895E4EC01
:10016200E0937400E0917400E078E1F307C0E4E802
:10017200E0937400E0917400E078E1F3E0917300A1
:1001820008951A930A931A2F0A81D0DFAEEADADFB2
:10019200A02FD8DFA12FD6DFD1DF198108812396C6
:1001A2000895E9E0EA93A0E4ECDFA4E6B0E046D3E8
:1001B200E2E0EA93A0ECE5DFE8E0EA93A0E5E1DF24
:1001C200EAE0EA93A7E2DDDFECE0EA93AFE1D9DF10
:1001D200EDE0EA93AFE1D5DFE9E0EA93A3E0D1DF16
:1001E20008952697CBD29D014C855D859FDFAEEAAF
:1001F200A9DFA7E0A7DF9ADFAFEAA4DF10E015309E
:1002020070F4E12FF0E0DE011696EA0FFB1FFF9378
:10021200EF93A5DFAF91BF91EC931F5FF0CFA7DF04
:10022200EB878CDFEE8133D238D27F936F93FF93CB
:10023200EF93EF812CD236D2AF91BF918F919F91E4
:1002420036D2DF01CB01E88537D2DA0139D2DA01C1
:100252003CD2E9851CD221D27F936F93FF93EF9317
:10026200EA8515D21FD2AF91BF918F919F911FD274
:10027200DF01CB01EB8520D2D90122D2D90125D2CF
:1002820084D22E96089528973FDF49DFA8EEB3E087
:10029200D5D2ECE8F0E026D284DFE7EAF0E022D221
:1002A200FE013496FA93EA93DE0112969ADFE4ECA9
:1002B200F0E0FA93EA931CD21BD288E0A8D12A96E6
:1002C200AAE0B0E0BBD2ECCFFFCFAA935D9BFECFFA
:1002D200E881ECB92196089553D28D013C81A32F78
:1002E200F4DFD801ED91FD913196FE93EE934FD25A
:1002F20025960895BA93AA932C9740D210E0AA8922
:10030200BB89E0E0F0E0ED93FC93E88DF98D319646
:10031200E88FF98F3197E4912E2FE03009F470C104
:10032200E12FE03031F4253211F411E001C0E6D1C1
:1003320066C1E130B9F4253211F4E0D15FC112E0B7
:10034200E0E0E98B00E02D3211F401E058C12B32DC
:1003520019F4EBE2E98B53C1203219F4E0E2E98BA4
:100362004EC102C0E23039F450E013E0203311F400
:10037200006845C102C0E33091F4203310F02A3303
:1003820008F007C0AAE05A9F502DE22FE0535E0FFB
:1003920036C140E02E3211F414E031C10EC0E43017
:1003A20091F4203310F02A3308F007C0AAE04A9FE4
:1003B200402DE22FE0534E0F22C12C3619F4026079
:1003C20015E01DC103C0E53009F019C1E22FE33683
:1003D20039F49BD1EE89FF89A481AA939CD10EC1E5
:1003E200E33729F492D19DD139D11E2F07C0E037CE
:1003F20089F48BD196D13ED11E2F08600F77403001
:1004020011F0411708F001C0142F40E0E0E0E88B42
:1004120030E065C0E43611F0E93611F4046002C040
:10042200E53791F4EAE0E88B01FF07C0E0E0FAEC7F
:100432006AE97BE380D11AE01FC0E0E1F7E260E005
:1004420070E079D115E018C0E83511F4086003C0F6
:10045200E83709F0D3C0E0E1E88B01FF07C0E0E034
:10046200F0E060E070E167D118E006C0E0E0F0E1A2
:1004720060E070E060D114E0403011F00F7701C00D
:1004820041E001FF06C041D1AE89BF891496CBD1AC
:100492000DC002FF07C039D153D16F2F660F660B13
:1004A200762F04C032D14CD166277727EC87FD879F
:1004B2006E877F8702FF12C0AF85AA2342F4EC85C4
:1004C200FD856E857F8568D142D1EDE2E98BE989B0
:1004D200E03019F01F5F4F5F01C00B7F342F00FD2A
:1004E20013C0151710F4351708F00EC007FF08C027
:1004F20002FF04C00B7F2989115001C020E301C013
:1005020020E2FCD05150EDCF141788F4006102FFB5
:1005120006C022D1503009F0515011504150E0E351
:10052200EA93F9D0503009F051504150EDCF312FBC
:10053200E889E030B1F4303099F003FF06C0EE8173
:10054200FF812591EE83FF8305C0AE81BF812D918E
:10055200AE83BF83D3D0503009F051503150EBCF2E
:1005620044C0FED038D12E2F2A3030F003FF02C013
:10057200295C01C0295A01C0205D04FD1EC021333F
:1005820048F4F7D0A130E0E0BE07E0E08E07E0E0FB
:100592009E0709F40BC0431740F4531710F000FFF5
:1005A20001C00FC020E207FF08C020E3006102FF84
:1005B20004C0D2D0503009F05150A0D0503009F0D0
:1005C20051503150CDD02BD1C2D0E889D2D0FF27A3
:1005D2006627772700D1AFD0E885F9856A857B85C4
:1005E20030976040704009F0BCCF00FF07C0503028
:1005F20029F05150E0E2EA938ED0F9CF10E085CE97
:10060200AA89BB89ED91FD91C0D06A960895FF92A7
:10061200F82E26971A930A93DE0114960024AF0D42
:10062200B01D8D01E0E0EC83ED83EE83EF83DE010C
:1006320018960024AF0DB01DED91FD91FA93EA9347
:100642001A930A93EDE6F1E0FA93EA93DE01189623
:1006520051DE198108812896FF900895BA93AA93D2
:10066200A991B991EE27FF276D91662311F031967A
:10067200FBCF0895BA93AA93AA27BB27E991F991D0
:100682000590002011F01196FBCFFD010895F0E0D6
:100692006F2F660F660B762F08956E2F7F2FE0E087
:1006A200F0E00895DF01CB01E8E07ED00895EA2B67
:1006B200FB2B682B792B0895FF2766277727F7CF27
:1006C200ED93FD936D937C930895ED91FD916D9162
:1006D2007D91EF7FFF7F637070707E936E93FE93C8
:1006E200EE930895FA93EA9380E091DF22960895BB
:1006F200EE81FF81688579859CD008952A93AB8924
:10070200BC89ED89FE8909950895EE89FF893497A0
:10071200EE8BFF8B0895AB89BC89ED89FE89099523
:100722000895AE89BF891496ED91FD91EE83FF8302
:10073200AE81BF810895E887F9876A877B8708952C
:10074200AE89BF891496ED91FC9111970895EC87BB
:10075200FD876E877F8708950B7FE989EA93DBCF58
:10076200E885F9856A857B85AC85BD858E859F8503
:100772000895A885B9858A859B8508955A934A93D9
:100782003A932A931A930A9308955D814C813B818F
:100792002A81198108810895F09560957095E195F7
:1007A200FF4F6F4F7F4F0895EE230E2EE8E01E2E6F
:1007B200FD01BC0179F0011438F0762F6F2FFE2F66
:1007C200E0E00118C1F70895EE0FFF1F661F771FC3
:1007D2000A94D1F708953F934F935F930024112415
:1007E200A00130E2AA0FBB1F881F991F001C111C19
:1007F200441F551F0E1A1F0A460B570B28F40E0EE4
:100802001F1E461F571F01C0A1603A9559F7FD01EF
:10081200BC01D001CA015F914F913F910895DBDF86
:10082200FD01BC010895ED91FD916D917C911397AD
:1008320008957A936A93FA93EA930895109639F099
:10084200A89580EA9FE00197F1F71197C9F70895FB
:00000001FF
