:0A0000000C9470000C9400000C94A6
:10000A0000000C9400000C9400000C9400000C9466
:10001A0000000C9400000C9400000C9400000C9456
:10002A0000000C9400000C9400000C9400000C9446
:10003A0000000C9400000C9400000C9400000C9436
:10004A0000000C9400000C9400000C9400000C9426
:10005A0000000C9400000C9400000C9400000C9416
:10006A0000000C9400000C9400000C9400000C9406
:10007A0000000C9400000C9400000C9400000C94F6
:10008A0000001027E80364000A00010000100001C4
:10009A001000010053797374656D205265616479AB
:1000AA002E20506C61636520796F75722066696EC7
:1000BA006765722E0D0A004E6F2046696E6765727B
:1000CA000D0A0042504D3A25642C2049525F4143A3
:1000DA003A25640D0A00F894EE27ECBBF1E0F5BF6F
:1000EA00E5BFE0936C008DE0A2E0BB27ED938A9513
:1000FA00E9F780E090E1A0E0B1E0ED930197E9F73C
:10010A008BBFEFEFEDBFE0E1EEBFC0E0D5E00C94AE
:10011A004C01E0E0E0939000E7E6E9B9E8E1EAB9EA
:10012A00E6E0E09395000895E0E0E0937100E8E4EA
:10013A00E09370000895E4EAE0937400E09174009B
:10014A00E078E1F30895E4E9E093740008951A93DE
:10015A001A2F10937300E4E8E0937400E09174009E
:10016A00E078E1F319910895E4ECE0937400E091EA
:10017A007400E078E1F307C0E4E8E0937400E091EA
:10018A007400E078E1F3E091730008951A930A93FA
:10019A001A2F0A81D0DFAEEADADFA02FD8DFA12F2B
:1001AA00D6DFD1DF1981088123960895E9E0EA9321
:1001BA00A0E4ECDFA4E6B0E0F9D4E2E0EA93A0EC34
:1001CA00E5DFE8E0EA93A0E5E1DFEAE0EA93A7E207
:1001DA00DDDFECE0EA93A4E2D9DFEDE0EA93A4E202
:1001EA00D5DFE9E0EA93A3E0D1DF0895269723D388
:1001FA009D014C855D859FDFAEEAA9DFA7E0A7DFF9
:10020A009ADFAFEAA4DF00E010E00530E0E01E0765
:10021A0074F4F801DE011696EA0FFB1FFF93EF93C1
:10022A00A3DFAF91BF91EC930F5F1F4FEECFA4DF17
:10023A00EB8789DFEE8174D279D27F936F93FF9334
:10024A00EF93EF816DD277D2AF91BF918F919F914A
:10025A0077D2DF01CB01E88578D2DA017FD2E9854E
:10026A005FD264D27F936F93FF93EF93EA8558D25C
:10027A0062D2AF91BF918F919F9162D2DF01CB0180
:10028A00EB8563D2D9016AD2DDD22E9608952C97D6
:10029A00E0E0E883E983EA83EB8300E010E039DFFA
:1002AA0043DFA8EEB3E082D4EEE9F0E05CD27EDF71
:1002BA00FE013896FA93EA93DE01169697DFAC812F
:1002CA00BD818E819F81A035E3ECBE07E0E08E07F9
:1002DA00E0E09E07D8F4E0E0EC83ED83EE83EF8361
:1002EA00E0930405E0930505E0930605E09307050E
:1002FA00E0930005E0930105E0930205E09303050E
:10030A0000E010E0E1ECF0E02ED265C032D2ADECB4
:10031A00BCEC8CE49DE3DCD37F936F93FF93EF9364
:10032A002ED2E3E3F3E363E77FE3D2D3AF91BF9146
:10033A008F919F917ED3E0930005F093010560931E
:10034A0002057093030515D21AD26CD3E093040503
:10035A00F0930505609306057093070519D2E0E04E
:10036A00F0E068EC72EC02D458F4E0910805F091E0
:10037A00090560910A0570910B050AD2F7D308F0B6
:10038A0021C00FD2ED32A1E0FA07A0E06A07A0E08F
:10039A007A07C0F006D2E883F9836A837B8316D290
:1003AA00E0931005F09311056093120570931305FD
:1003BA00E881F9816A817B81A0E6BAEE80E090E06B
:1003CA006BD28F010CD2E0930805F0930905609374
:1003DA000A0570930B05093CE0E01E0724F4083275
:1003EA00E0E01E0714F400E010E0EDECF0E0FA9310
:1003FA00EA93F801FDD1F3D1ABD2FAD188E050D11A
:10040A002A96A4E1B0E0D2D3E1D1EC5EFF4F6F4F60
:10041A007F4FE0930C05F0930D0560930E057093E2
:10042A000F0546CFFFCFAA935D9BFECFE881ECB9BB
:10043A002196089502D28D013C81A32FF4DFD801C1
:10044A00ED91FD913196FE93EE93FED12596089596
:10045A00BA93AA932697EFD110E0AC85BD85E0E068
:10046A00F0E0ED93FC93EA89FB893196EA8BFB8BEA
:10047A003197E4912E2FE03009F40BC1E12FE030DF
:10048A0031F4253211F411E001C0B8D101C1E130D3
:10049A00A1F4253211F4B2D1FAC012E040E000E032
:1004AA002D3211F401E0F4C02B3211F44BE2F0C00A
:1004BA00203211F440E2ECC002C0E23039F450E0DC
:1004CA0013E0203311F40068E3C003C0E33009F0FD
:1004DA00DFC0203310F02A3308F007C0AAE05A9F81
:1004EA00502DE22FE0535E0FD3C0E22FE33639F4EA
:1004FA008CD1E889F989A481AA938DD1C8C0E33740
:10050A0029F483D18ED1F3D01E2F07C0E03749F4E6
:10051A007CD187D1F8D01E2F086002600F7730E0B7
:10052A003AC0E43611F0E93611F4046002C0E53746
:10053A0031F4ECE8F0E0EE83FF8315E00CC0E83517
:10054A0011F4086003C0E83709F0A1C0E6E9F0E059
:10055A00EE83FF8314E002FF15C057D1A889B98939
:10056A001496ED91FD91EA87FB87AB85AA2322F4C5
:10057A0070D1EA87FB874DE2403011F01F5F01C05E
:10058A000B7F09C042D1A889B9891496ED91FC91D3
:10059A001197EA87FB8700FD10C0151770F407FF53
:1005AA0008C002FF04C00B7F242F115001C020E3B2
:1005BA0001C020E223D15150F0CF312F01FF16C0E4
:1005CA00303099F003FF06C0EE81FF812591EE835A
:1005DA00FF8305C0AE81BF812D91AE83BF830ED14B
:1005EA00503009F051503150EBCF48C020E3EE8132
:1005FA00FF8176D1E887F987EE81FF813296EE8313
:10060A00FF83E885F985AA85BB85AE17BF0750F039
:10061A002F5FA885B985EA85FB85EA1BFB0BEA876C
:10062A00FB87EFCF2A3328F003FF02C0295F01C0FE
:10063A00295D04FD19C0213320F4A885B9851197D5
:10064A0009F409C0531710F000FF01C011C020E2DD
:10065A0007FF0AC020E3006102FF06C00B7F4A932E
:10066A00DAD0503009F05150C9D0503009F0515009
:10067A003150A885B985129708F0B8CF00FF07C096
:10068A00503029F05150E0E2EA93C5D0F9CF10E09A
:10069A00EACEAC85BD85ED91FD91D4D064960895DE
:1006AA00FF92F82E26971A930A93DE0114960024D5
:1006BA00AF0DB01D8D01E0E0EC83ED83EE83EF8397
:1006CA00DE0118960024AF0DB01DED91FD91FA934D
:1006DA00EA931A930A93EFE1F2E0FA93EA93DE01BE
:1006EA001896B6DE198108812896FF900895BA9364
:1006FA00AA93A991B991EE27FF276D91662311F06C
:10070A003196FBCF0895BA93AA93AA27BB27E991FA
:10071A00F9910590002011F01196FBCFFD01089583
:10072A00F0E06F2F660F660B762F08956E2F7F2FDE
:10073A00E0E0F0E00895DF01CB01E8E096D008950B
:10074A00EA2BFB2B682B792B0895FF27662777273F
:10075A00F7DFEF7FFF7F637070700895ED93FD936D
:10076A006D937C930895FA93EA9380E099DF229639
:10077A000895EC81FD816E817F811FD10895A0913A
:10078A000005B09101058091020590910305089535
:10079A00A0910405B0910505809106059091070581
:1007AA000895A0911005B0911105809112059091BC
:1007BA001305E0910C05F0910D0560910E057091FD
:1007CA000F05EA1BFB0B680B790B0895E0910C05EA
:1007DA00F0910D0560910E0570910F050895E09155
:1007EA000405F091050560910605709107050895C5
:1007FA006F2F660F660B762F77D008952A93AD85F3
:10080A00BE85EF85F88909950895E889F9893497AD
:10081A00E88BF98B0895AD85BE85EF85F889099532
:10082A000895A889B9891496ED91FD91EE83FF8305
:10083A00AE81BF8108955A934A933A932A931A93A1
:10084A000A9308955D814C813B812A81198108812F
:10085A000895F195E195F0400895F09560957095A9
:10086A00E195FF4F6F4F7F4F0895EE230E2EE8E07C
:10087A001E2EFD01BC0179F0011438F0762F6F2F7E
:10088A00FE2FE0E00118C1F70895EE0FFF1F661F63
:10089A00771F0A94D1F708953F934F935F930024EB
:1008AA001124A00130E2AA0FBB1F881F991F001C48
:1008BA00111C441F551F0E1A1F0A460B570B28F40A
:1008CA000E0E1F1E461F571F01C0A1603A9559F709
:1008DA00FD01BC01D001CA015F914F913F9108957A
:1008EA000590F491E02D08957A936A93FA93EA9326
:1008FA000895552342F4503811F4E0FF04C03196AC
:10090A00691F791F6BF050E8572711F45F93CFC026
:10091A005F3F31F0660F000C57956795752F089564
:10092A005F9300200AF0CEC0C7C050E8192E1522E6
:10093A00880F991F9527550F879550E8072E05228E
:10094A00660F771F7527550F67950895689401C03C
:10095A00E8945F93F2DF703818F07F3F08F4A7C07D
:10096A0056E1571BAAF4519558300EF4593030F01D
:10097A00EFEFFFEF6FEF7FE777F91AC0772755237D
:10098A00B9F0EE0FFF1F661F771F5A95D1F710C0F7
:10099A007727583028F0EF2FF62F672F5850F9CFC6
:1009AA00552331F076956795F795E7955A95D1F7DE
:1009BA0000200AF452DF5F910895689401C0E89418
:1009CA00309760407040B1F0002426F0772312F48B
:1009DA00009443DF172E7EE1112032F07A95EE0F54
:1009EA00FF1F661F111CF9CFEF2FF62F612D5F93A2
:1009FA008ADF5F9108954F93AF01FD01DA01AB01E0
:100A0A00BC01CA01402D012C142E4F910895EA0F02
:100A1A00FB1F681F0895E095F0956095EF5FFF4F03
:100A2A006F4F08955F9381DF903871F150E8152672
:100A3A0004C05F937ADF903839F1703821F1572F6B
:100A4A00591B2BF112F4D7DFFACF583118F0AA2725
:100A5A00BB278827583028F0AB2FB82F8827585043
:100A6A00F9CF552329F08695B795A7955A95D9F7C1
:100A7A00502D512572F0CBDF38F46795F795E7953D
:100A8A00739513F41FC0B7DF3EDF5F910895D8F75F
:100A9A00FBCFEA1BFB0B680B51F010F40094BBDF91
:100AAA00662392F3EE0FFF1F661F7A95CBF7EE27A8
:100ABA00FF27BF015F910895EFEFFFEF6FE77FEF29
:100ACA005F910895EFEFFFEF6FE77FE75F9108957A
:100ADA005F932BDF703859F3903849F30124089457
:100AEA00791F23F424F300203AF3ECCF0F921F93DB
:100AFA002F933F934F93112722279927689FA0018D
:100B0A008F9F302D410D591F6B9F300D411D591F6D
:100B1A008E9F27D0BF9F25D06A9F23D0BE9F1DD00E
:100B2A00AF9F1BD0AE9F110D291F391F491F591F97
:100B3A00E32FF42F652F522F4F913F912F911F9141
:100B4A000F9066232AF0550FEE1FFF1F661F02C083
:100B5A0073954BF2CEDE5F910895100D211D391F5A
:100B6A0002C0200D311D491F591F089599239AF07B
:100B7A00772342F0971748F029F4AE17BF07860784
:100B8A0020F031F0989488940895989408940895E0
:100B9A001894889408957723C2F7971798F3A9F7BA
:100BAA00EA17FB07680788F399F3ECCF109639F038
:100BBA00A89580EA9FE00197F1F71197C9F7089580
:00000001FF
