:0E0000000C945B000C9400000C9400000C9417
:10000E0000000C9400000C9400000C9400000C9462
:10001E0000000C9400000C9400000C9400000C9452
:10002E0000000C9400000C9400000C9400000C9442
:10003E0000000C9400000C9400000C9400000C9432
:10004E0000000C9400000C9400000C9400000C9422
:10005E0000000C9400000C9400000C9400000C9412
:10006E0000000C9400000C9400000C9400000C9402
:10007E0000000C9400000C9400000C9400004D4104
:10008E0058333031303220496E69742E2E2E0D0ABF
:10009E0000496E697420446F6E652E0D0A00256C42
:1000AE00642C256C640D0A00F894EE27ECBBF1E08D
:1000BE00F5BFE5BFE0936C008DE0A2E0BB27ED93AA
:1000CE008A95E9F780E090E1A0E0B1E0ED93019729
:1000DE00E9F78BBFEFEFEDBFE0E1EEBFC0E0D5E09B
:1000EE000C948B01E0E0E0937100E8E4E093700083
:1000FE00E4E009C0E4EAE0937400E0917400E07873
:10010E00E1F30895E4E9E093740008951A931A2F29
:10011E0010937300E4E8E0937400E0917400E078CB
:10012E00E1F319910895E4ECE0937400E09174000A
:10013E00E078E1F307C0E4E8E0937400E091740026
:10014E00E078E1F3E091730008951A930A931A2F61
:10015E000A81B1D2A12FDADFD5DF1981088123966A
:10016E0008951A930A930A2FA6D2C4DFAFEACEDF00
:10017E00E2DF1E2FC7DFE12F099119910895E9E003
:10018E00EA93A0E4E2DFA4E6B0E050D4E8E0EA931C
:10019E00A0E5DBDFE9E0EA93A3E0D7DFEAE0EA934C
:1001AE00A7E2D3DFECE0EA93A4E2CFDFEDE0EA933F
:1001BE00A4E2CBDFE4E0EA93A0E0C7DFE5E0EA9358
:1001CE00A0E0C3DFE6E0EA93A0E0BFDF0895269744
:1001DE00E7D2AD01A4E0C5DF1E2FA6E0C2DF0E2FD1
:1001EE00011711F4E0E04BC085DFAEEA8FDFA7E028
:1001FE008DDF80DFAFEA8ADF20E030E02530E0E0FF
:10020E003E0774F4F901DE011696EA0FFB1FFF9309
:10021E00EF9389DFAF91BF91EC932F5F3F4FEECFFE
:10022E008ADFEB876FDFEE814BD250D27F936F93D5
:10023E00FF93EF93EF8144D24ED2AF91BF918F9146
:10024E009F914ED2DF01CB01E8854FD2AC85BD85A3
:10025E0055D2E98535D23AD27F936F93FF93EF93C0
:10026E00EA852ED238D2AF91BF918F919F9138D21D
:10027E00DF01CB01EB8539D2DA0140D2E1E097D232
:10028E002E960895EDD22897E0910005F091010584
:10029E0060910205709103054ED3A3E3B3E383E7A8
:1002AE009FE376D311D32FD2EA0FFB1F681F791F5E
:1002BE002FD2A0910005B091010580910205909179
:1002CE0003052BD2EA1BFB0B680B790BE883F98332
:1002DE006A837B8322D2E0930005F093010560933D
:1002EE00020570930305E881F9816A817B812C9662
:1002FE000895E8E1EAB9E6E0E0939500E7E6E9B9AA
:10030E00E0E0E093900008956097E4E6E883E0E093
:10031E00E983EA83EB83EDDFE5DEECE8F0E002D281
:10032E002EDFEFE9F0E0FED1FE013C96FA93EA9360
:10033E00DE011A964CDFE030A1F0FAD1A3DFE8D14E
:10034E00ECEAF0E0FA93EA93EE85FF856889798905
:10035E0082D2EA85FB856C857D857DD288E06BD166
:10036E002A96A5E0B0E062D3DFCFFFCFAA935D9BC4
:10037E00FECFE881ECB92196089514D28D013C810F
:10038E00A32FF4DFD801ED91FD913196FE93EE93FC
:10039E0010D225960895BA93AA932B9701D210E006
:1003AE00A989BA89E0E0F0E0ED93FC93EF89F88D2E
:1003BE003196EF8BF88F3197E4912E2FE03009F4C0
:1003CE0033C1E12FE03031F4253211F411E001C0D8
:1003DE00B4D129C1E130A1F4253211F4AED122C13C
:1003EE0012E040E000E02D3211F401E01CC12B328E
:1003FE0011F44BE218C1203211F440E214C102C0D4
:10040E00E23039F450E013E0203311F400680BC1F0
:10041E0002C0E33091F4203310F02A3308F007C005
:10042E00AAE05A9F502DE22FE0535E0FFCC02C36EF
:10043E0019F4026015E0F7C003C0E53009F0F3C00F
:10044E00E22FE33639F480D1ED89FE89A481AA9397
:10045E0081D1E8C0E33729F477D182D113D11E2F91
:10046E0007C0E03751F470D17BD118D11E2F086030
:10047E000F77E0E0E88B30E05CC0E43611F0E9364F
:10048E0011F4046002C0E53791F4EAE0E88B01FF55
:10049E0007C0E0E0FAEC6AE97BE36CD11AE01FC01A
:1004AE00E0E1F7E260E070E065D115E018C0E835F4
:1004BE0011F4086003C0E83709F0B4C0E0E1E88B3E
:1004CE0001FF07C0E0E0F0E060E070E153D118E01A
:1004DE0006C0E0E0F0E160E070E04CD114E001FF16
:1004EE0006C032D1AD89BE891496AFD10DC002FFC0
:1004FE0007C02AD144D16F2F660F660B762F04C02A
:10050E0023D13DD166277727EC87FD876E877F87BE
:10051E0002FF0FC0AF85AA233AF4EC85FD856E85E8
:10052E007F854CD133D14DE2403011F01F5F01C0B9
:10053E000B7F00FD10C0151770F407FF08C002FFF7
:10054E0004C00B7F242F115001C020E301C020E214
:10055E00F4D05150F0CF312FE889E030B1F4303083
:10056E0099F003FF06C0EE81FF812591EE83FF8394
:10057E0005C0AE81BF812D91AE83BF83DED05030DA
:10058E0009F051503150EBCF44C005D136D12E2F4A
:10059E002A3030F003FF02C0295C01C0295A01C085
:1005AE00205D04FD1EC0213348F4ADD0A130E0E043
:1005BE00BE07E0E08E07E0E09E0709F409C053177E
:1005CE0010F000FF01C011C020E207FF0AC020E3B7
:1005DE00006102FF06C00B7F4A93BCD0503009F079
:1005EE005150ABD0503009F051503150D4D029D1A8
:1005FE00CDD0E88988D0FF2766277727FED0BAD0DE
:10060E00E885F9856A857B8530976040704009F0F2
:10061E00BCCF00FF07C0503029F05150E0E2EA9302
:10062E0099D0F9CF10E0C2CEA989BA89ED91FD918A
:10063E00BED069960895FF92F82E26971A930A93C4
:10064E00DE0114960024AF0DB01D8D01E0E0EC83A9
:10065E00ED83EE83EF83DE0118960024AF0DB01DFF
:10066E00ED91FD91FA93EA931A930A93E4ECF1E07B
:10067E00FA93EA93DE0118968EDE19810881289688
:10068E00FF900895BA93AA93A991B991EE27FF27E7
:10069E006D91662311F03196FBCF0895BA93AA930C
:1006AE00AA27BB27E991F9910590002011F0119628
:1006BE00FBCFFD0108951EDDAEEA28DDA02F26CD6D
:1006CE00F0E06F2F660F660B762F08956E2F7F2F3B
:1006DE00E0E0F0E00895DF01CB01E8E077D0089587
:1006EE00EA2BFB2B682B792B0895FF27662777279C
:1006FE00F7DFEF7FFF7F637070700895ED93FD93CA
:10070E006D937C930895A885B9858A859B850895F8
:10071E00EC83FD836E837F830895EC81FD816E8172
:10072E007F810895FA93EA9380E085DF22960895FB
:10073E00AC85BD858E859F8508952A93AA89BB8930
:10074E00EC89FD8909950895ED89FE893497ED8B25
:10075E00FE8B0895AA89BB89EC89FD8909950895B8
:10076E00AD89BE891496ED91FD91EE83FF83AE8126
:10077E00BF810895E887F9876A877B870895AD89D9
:10078E00BE891496ED91FC9111970895EC87FD8723
:10079E006E877F870895E885F9856A857B85C8CF42
:1007AE005A934A933A932A931A930A9308955D8122
:1007BE004C813B812A81198108810895F0956095BD
:1007CE007095E195FF4F6F4F7F4F0895EE230E2EDC
:1007DE00E8E01E2EFD01BC0179F0011438F0762FF1
:1007EE006F2FFE2FE0E00118C1F70895EE0FFF1FE7
:1007FE00661F771F0A94D1F708953F934F935F9327
:10080E0000241124A00130E2AA0FBB1F881F991FDC
:10081E00001C111C441F551F0E1A1F0A460B570BA6
:10082E0028F40E0E1F1E461F571F01C0A1603A95D9
:10083E0059F7FD01BC01D001CA015F914F913F9163
:10084E000895DBDFFD01BC010895ED91FD916D91E1
:10085E007C91139708957A936A93FA93EA93089585
:10086E009A938A93BA93AA930895552342F45038D3
:10087E0011F4E0FF04C03196691F791F6BF050E848
:10088E00572711F45F9373C05F3F31F0660F000C72
:10089E0057956795752F08955F9300200AF072C0E3
:1008AE006BC050E8192E1522880F991F9527550FEA
:1008BE00879550E8072E0522660F771F7527550F6F
:1008CE0067950895689401C0E8945F93F2DF7038DD
:1008DE0018F07F3F08F44BC056E1571BAAF4519510
:1008EE0058300EF4593030F0EFEFFFEF6FEF7FE737
:1008FE0077F91AC077275523B9F0EE0FFF1F661F41
:10090E00771F5A95D1F710C07727583028F0EF2F60
:10091E00F62F672F5850F9CF552331F076956795FE
:10092E00F795E7955A95D1F700200AF447DF5F91C6
:10093E000895689401C0E894309760407040B1F01B
:10094E00002426F0772312F4009438DF172E7EE170
:10095E00112032F07A95EE0FFF1F661F111CF9CF92
:10096E00EF2FF62F612D5F938ADF5F910895EE27AB
:10097E00FF27BF015F910895EFEFFFEF6FE77FEF66
:10098E005F910895EFEFFFEF6FE77FE75F910895B7
:10099E005F9387DF703859F3903849F30124089438
:1009AE00791F23F424F300203AF3ECCF0F921F9318
:1009BE002F933F934F93112722279927689FA001CA
:1009CE008F9F302D410D591F6B9F300D411D591FAB
:1009DE008E9F27D0BF9F25D06A9F23D0BE9F1DD04C
:1009EE00AF9F1BD0AE9F110D291F391F491F591FD5
:1009FE00E32FF42F652F522F4F913F912F911F917F
:100A0E000F9066232AF0550FEE1FFF1F661F02C0C0
:100A1E0073954BF22ADF5F910895100D211D391F3A
:100A2E0002C0200D311D491F591F0895109639F02F
:100A3E00A89580EA9FE00197F1F71197C9F70895FD
:00000001FF
